{"abi":[{"inputs":[{"internalType":"uint256","name":"minimun","type":"uint256"},{"internalType":"address","name":"creator","type":"address"}],"stateMutability":"nonpayable","type":"constructor"},{"inputs":[{"internalType":"uint256","name":"index","type":"uint256"}],"name":"approveRequest","outputs":[],"stateMutability":"nonpayable","type":"function"},{"inputs":[{"internalType":"address","name":"","type":"address"}],"name":"approvers","outputs":[{"internalType":"bool","name":"","type":"bool"}],"stateMutability":"view","type":"function"},{"inputs":[],"name":"approversCount","outputs":[{"internalType":"uint256","name":"","type":"uint256"}],"stateMutability":"view","type":"function"},{"inputs":[],"name":"contribute","outputs":[],"stateMutability":"payable","type":"function"},{"inputs":[{"internalType":"string","name":"description","type":"string"},{"internalType":"uint256","name":"value","type":"uint256"},{"internalType":"address","name":"recipient","type":"address"}],"name":"createRequest","outputs":[],"stateMutability":"nonpayable","type":"function"},{"inputs":[{"internalType":"uint256","name":"index","type":"uint256"}],"name":"finalizeRequest","outputs":[],"stateMutability":"nonpayable","type":"function"},{"inputs":[],"name":"getManager","outputs":[{"internalType":"address","name":"","type":"address"}],"stateMutability":"view","type":"function"},{"inputs":[],"name":"getMinimunContribute","outputs":[{"internalType":"uint256","name":"","type":"uint256"}],"stateMutability":"view","type":"function"},{"inputs":[],"name":"getSummary","outputs":[{"internalType":"uint256","name":"","type":"uint256"},{"internalType":"uint256","name":"","type":"uint256"},{"internalType":"uint256","name":"","type":"uint256"},{"internalType":"uint256","name":"","type":"uint256"},{"internalType":"address","name":"","type":"address"}],"stateMutability":"view","type":"function"},{"inputs":[],"name":"manager","outputs":[{"internalType":"address","name":"","type":"address"}],"stateMutability":"view","type":"function"},{"inputs":[],"name":"minimunContribute","outputs":[{"internalType":"uint256","name":"","type":"uint256"}],"stateMutability":"view","type":"function"},{"inputs":[],"name":"numRequest","outputs":[{"internalType":"uint256","name":"","type":"uint256"}],"stateMutability":"view","type":"function"},{"inputs":[{"internalType":"uint256","name":"","type":"uint256"}],"name":"requests","outputs":[{"internalType":"string","name":"description","type":"string"},{"internalType":"uint256","name":"value","type":"uint256"},{"internalType":"address","name":"recipient","type":"address"},{"internalType":"bool","name":"complete","type":"bool"},{"internalType":"uint256","name":"approvalCount","type":"uint256"}],"stateMutability":"view","type":"function"}],"devdoc":{"kind":"dev","methods":{},"version":1},"evm":{"assembly":"    /* \"Crownfunding\":58:2561  contract Crownfunding {... */\n  mstore(0x40, 0x80)\n    /* \"Crownfunding\":830:944  constructor(uint minimun, address creator) {... */\n  callvalue\n  dup1\n  iszero\n  tag_1\n  jumpi\n  0x00\n  dup1\n  revert\ntag_1:\n  pop\n  mload(0x40)\n  sub(codesize, bytecodeSize)\n  dup1\n  bytecodeSize\n  dup4\n  codecopy\n  dup2\n  dup2\n  add\n  0x40\n  mstore\n  dup2\n  add\n  swap1\n  tag_2\n  swap2\n  swap1\n  tag_3\n  jump\t// in\ntag_2:\n    /* \"Crownfunding\":893:900  creator */\n  dup1\n    /* \"Crownfunding\":883:890  manager */\n  0x00\n  dup1\n    /* \"Crownfunding\":883:900  manager = creator */\n  0x0100\n  exp\n  dup2\n  sload\n  dup2\n  0xffffffffffffffffffffffffffffffffffffffff\n  mul\n  not\n  and\n  swap1\n  dup4\n  0xffffffffffffffffffffffffffffffffffffffff\n  and\n  mul\n  or\n  swap1\n  sstore\n  pop\n    /* \"Crownfunding\":930:937  minimun */\n  dup2\n    /* \"Crownfunding\":910:927  minimunContribute */\n  0x01\n    /* \"Crownfunding\":910:937  minimunContribute = minimun */\n  dup2\n  swap1\n  sstore\n  pop\n    /* \"Crownfunding\":830:944  constructor(uint minimun, address creator) {... */\n  pop\n  pop\n    /* \"Crownfunding\":58:2561  contract Crownfunding {... */\n  jump(tag_6)\n    /* \"#utility.yul\":88:205   */\ntag_8:\n    /* \"#utility.yul\":197:198   */\n  0x00\n    /* \"#utility.yul\":194:195   */\n  dup1\n    /* \"#utility.yul\":187:199   */\n  revert\n    /* \"#utility.yul\":334:411   */\ntag_10:\n    /* \"#utility.yul\":371:378   */\n  0x00\n    /* \"#utility.yul\":400:405   */\n  dup2\n    /* \"#utility.yul\":389:405   */\n  swap1\n  pop\n    /* \"#utility.yul\":334:411   */\n  swap2\n  swap1\n  pop\n  jump\t// out\n    /* \"#utility.yul\":417:539   */\ntag_11:\n    /* \"#utility.yul\":490:514   */\n  tag_23\n    /* \"#utility.yul\":508:513   */\n  dup2\n    /* \"#utility.yul\":490:514   */\n  tag_10\n  jump\t// in\ntag_23:\n    /* \"#utility.yul\":483:488   */\n  dup2\n    /* \"#utility.yul\":480:515   */\n  eq\n    /* \"#utility.yul\":470:533   */\n  tag_24\n  jumpi\n    /* \"#utility.yul\":529:530   */\n  0x00\n    /* \"#utility.yul\":526:527   */\n  dup1\n    /* \"#utility.yul\":519:531   */\n  revert\n    /* \"#utility.yul\":470:533   */\ntag_24:\n    /* \"#utility.yul\":417:539   */\n  pop\n  jump\t// out\n    /* \"#utility.yul\":545:688   */\ntag_12:\n    /* \"#utility.yul\":602:607   */\n  0x00\n    /* \"#utility.yul\":633:639   */\n  dup2\n    /* \"#utility.yul\":627:640   */\n  mload\n    /* \"#utility.yul\":618:640   */\n  swap1\n  pop\n    /* \"#utility.yul\":649:682   */\n  tag_26\n    /* \"#utility.yul\":676:681   */\n  dup2\n    /* \"#utility.yul\":649:682   */\n  tag_11\n  jump\t// in\ntag_26:\n    /* \"#utility.yul\":545:688   */\n  swap3\n  swap2\n  pop\n  pop\n  jump\t// out\n    /* \"#utility.yul\":694:820   */\ntag_13:\n    /* \"#utility.yul\":731:738   */\n  0x00\n    /* \"#utility.yul\":771:813   */\n  0xffffffffffffffffffffffffffffffffffffffff\n    /* \"#utility.yul\":764:769   */\n  dup3\n    /* \"#utility.yul\":760:814   */\n  and\n    /* \"#utility.yul\":749:814   */\n  swap1\n  pop\n    /* \"#utility.yul\":694:820   */\n  swap2\n  swap1\n  pop\n  jump\t// out\n    /* \"#utility.yul\":826:922   */\ntag_14:\n    /* \"#utility.yul\":863:870   */\n  0x00\n    /* \"#utility.yul\":892:916   */\n  tag_29\n    /* \"#utility.yul\":910:915   */\n  dup3\n    /* \"#utility.yul\":892:916   */\n  tag_13\n  jump\t// in\ntag_29:\n    /* \"#utility.yul\":881:916   */\n  swap1\n  pop\n    /* \"#utility.yul\":826:922   */\n  swap2\n  swap1\n  pop\n  jump\t// out\n    /* \"#utility.yul\":928:1050   */\ntag_15:\n    /* \"#utility.yul\":1001:1025   */\n  tag_31\n    /* \"#utility.yul\":1019:1024   */\n  dup2\n    /* \"#utility.yul\":1001:1025   */\n  tag_14\n  jump\t// in\ntag_31:\n    /* \"#utility.yul\":994:999   */\n  dup2\n    /* \"#utility.yul\":991:1026   */\n  eq\n    /* \"#utility.yul\":981:1044   */\n  tag_32\n  jumpi\n    /* \"#utility.yul\":1040:1041   */\n  0x00\n    /* \"#utility.yul\":1037:1038   */\n  dup1\n    /* \"#utility.yul\":1030:1042   */\n  revert\n    /* \"#utility.yul\":981:1044   */\ntag_32:\n    /* \"#utility.yul\":928:1050   */\n  pop\n  jump\t// out\n    /* \"#utility.yul\":1056:1199   */\ntag_16:\n    /* \"#utility.yul\":1113:1118   */\n  0x00\n    /* \"#utility.yul\":1144:1150   */\n  dup2\n    /* \"#utility.yul\":1138:1151   */\n  mload\n    /* \"#utility.yul\":1129:1151   */\n  swap1\n  pop\n    /* \"#utility.yul\":1160:1193   */\n  tag_34\n    /* \"#utility.yul\":1187:1192   */\n  dup2\n    /* \"#utility.yul\":1160:1193   */\n  tag_15\n  jump\t// in\ntag_34:\n    /* \"#utility.yul\":1056:1199   */\n  swap3\n  swap2\n  pop\n  pop\n  jump\t// out\n    /* \"#utility.yul\":1205:1712   */\ntag_3:\n    /* \"#utility.yul\":1284:1290   */\n  0x00\n    /* \"#utility.yul\":1292:1298   */\n  dup1\n    /* \"#utility.yul\":1341:1343   */\n  0x40\n    /* \"#utility.yul\":1329:1338   */\n  dup4\n    /* \"#utility.yul\":1320:1327   */\n  dup6\n    /* \"#utility.yul\":1316:1339   */\n  sub\n    /* \"#utility.yul\":1312:1344   */\n  slt\n    /* \"#utility.yul\":1309:1428   */\n  iszero\n  tag_36\n  jumpi\n    /* \"#utility.yul\":1347:1426   */\n  tag_37\n  tag_8\n  jump\t// in\ntag_37:\n    /* \"#utility.yul\":1309:1428   */\ntag_36:\n    /* \"#utility.yul\":1467:1468   */\n  0x00\n    /* \"#utility.yul\":1492:1556   */\n  tag_38\n    /* \"#utility.yul\":1548:1555   */\n  dup6\n    /* \"#utility.yul\":1539:1545   */\n  dup3\n    /* \"#utility.yul\":1528:1537   */\n  dup7\n    /* \"#utility.yul\":1524:1546   */\n  add\n    /* \"#utility.yul\":1492:1556   */\n  tag_12\n  jump\t// in\ntag_38:\n    /* \"#utility.yul\":1482:1556   */\n  swap3\n  pop\n    /* \"#utility.yul\":1438:1566   */\n  pop\n    /* \"#utility.yul\":1605:1607   */\n  0x20\n    /* \"#utility.yul\":1631:1695   */\n  tag_39\n    /* \"#utility.yul\":1687:1694   */\n  dup6\n    /* \"#utility.yul\":1678:1684   */\n  dup3\n    /* \"#utility.yul\":1667:1676   */\n  dup7\n    /* \"#utility.yul\":1663:1685   */\n  add\n    /* \"#utility.yul\":1631:1695   */\n  tag_16\n  jump\t// in\ntag_39:\n    /* \"#utility.yul\":1621:1695   */\n  swap2\n  pop\n    /* \"#utility.yul\":1576:1705   */\n  pop\n    /* \"#utility.yul\":1205:1712   */\n  swap3\n  pop\n  swap3\n  swap1\n  pop\n  jump\t// out\n    /* \"Crownfunding\":58:2561  contract Crownfunding {... */\ntag_6:\n  dataSize(sub_0)\n  dup1\n  dataOffset(sub_0)\n  0x00\n  codecopy\n  0x00\n  return\nstop\n\nsub_0: assembly {\n        /* \"Crownfunding\":58:2561  contract Crownfunding {... */\n      mstore(0x40, 0x80)\n      jumpi(tag_1, lt(calldatasize, 0x04))\n      shr(0xe0, calldataload(0x00))\n      dup1\n      0x82fde093\n      gt\n      tag_15\n      jumpi\n      dup1\n      0xb1b16431\n      gt\n      tag_16\n      jumpi\n      dup1\n      0xb1b16431\n      eq\n      tag_11\n      jumpi\n      dup1\n      0xd5009584\n      eq\n      tag_12\n      jumpi\n      dup1\n      0xd7bb99ba\n      eq\n      tag_13\n      jumpi\n      dup1\n      0xd7d1bbdb\n      eq\n      tag_14\n      jumpi\n      jump(tag_1)\n    tag_16:\n      dup1\n      0x82fde093\n      eq\n      tag_8\n      jumpi\n      dup1\n      0x8a9cfd55\n      eq\n      tag_9\n      jumpi\n      dup1\n      0x93bf5a76\n      eq\n      tag_10\n      jumpi\n      jump(tag_1)\n    tag_15:\n      dup1\n      0x03441006\n      eq\n      tag_2\n      jumpi\n      dup1\n      0x0a144391\n      eq\n      tag_3\n      jumpi\n      dup1\n      0x4051ddac\n      eq\n      tag_4\n      jumpi\n      dup1\n      0x481c6a75\n      eq\n      tag_5\n      jumpi\n      dup1\n      0x4e536177\n      eq\n      tag_6\n      jumpi\n      dup1\n      0x81d12c58\n      eq\n      tag_7\n      jumpi\n    tag_1:\n      0x00\n      dup1\n      revert\n        /* \"Crownfunding\":1941:2304  function finalizeRequest(uint index)  public restricted {... */\n    tag_2:\n      callvalue\n      dup1\n      iszero\n      tag_17\n      jumpi\n      0x00\n      dup1\n      revert\n    tag_17:\n      pop\n      tag_18\n      0x04\n      dup1\n      calldatasize\n      sub\n      dup2\n      add\n      swap1\n      tag_19\n      swap2\n      swap1\n      tag_20\n      jump\t// in\n    tag_19:\n      tag_21\n      jump\t// in\n    tag_18:\n      stop\n        /* \"Crownfunding\":379:420  mapping(address => bool) public approvers */\n    tag_3:\n      callvalue\n      dup1\n      iszero\n      tag_22\n      jumpi\n      0x00\n      dup1\n      revert\n    tag_22:\n      pop\n      tag_23\n      0x04\n      dup1\n      calldatasize\n      sub\n      dup2\n      add\n      swap1\n      tag_24\n      swap2\n      swap1\n      tag_25\n      jump\t// in\n    tag_24:\n      tag_26\n      jump\t// in\n    tag_23:\n      mload(0x40)\n      tag_27\n      swap2\n      swap1\n      tag_28\n      jump\t// in\n    tag_27:\n      mload(0x40)\n      dup1\n      swap2\n      sub\n      swap1\n      return\n        /* \"Crownfunding\":2310:2559  function getSummary() public view returns (uint, uint, uint, uint, address) {... */\n    tag_4:\n      callvalue\n      dup1\n      iszero\n      tag_29\n      jumpi\n      0x00\n      dup1\n      revert\n    tag_29:\n      pop\n      tag_30\n      tag_31\n      jump\t// in\n    tag_30:\n      mload(0x40)\n      tag_32\n      swap6\n      swap5\n      swap4\n      swap3\n      swap2\n      swap1\n      tag_33\n      jump\t// in\n    tag_32:\n      mload(0x40)\n      dup1\n      swap2\n      sub\n      swap1\n      return\n        /* \"Crownfunding\":284:306  address public manager */\n    tag_5:\n      callvalue\n      dup1\n      iszero\n      tag_34\n      jumpi\n      0x00\n      dup1\n      revert\n    tag_34:\n      pop\n      tag_35\n      tag_36\n      jump\t// in\n    tag_35:\n      mload(0x40)\n      tag_37\n      swap2\n      swap1\n      tag_38\n      jump\t// in\n    tag_37:\n      mload(0x40)\n      dup1\n      swap2\n      sub\n      swap1\n      return\n        /* \"Crownfunding\":312:341  uint public minimunContribute */\n    tag_6:\n      callvalue\n      dup1\n      iszero\n      tag_39\n      jumpi\n      0x00\n      dup1\n      revert\n    tag_39:\n      pop\n      tag_40\n      tag_41\n      jump\t// in\n    tag_40:\n      mload(0x40)\n      tag_42\n      swap2\n      swap1\n      tag_43\n      jump\t// in\n    tag_42:\n      mload(0x40)\n      dup1\n      swap2\n      sub\n      swap1\n      return\n        /* \"Crownfunding\":454:494  mapping(uint => Request) public requests */\n    tag_7:\n      callvalue\n      dup1\n      iszero\n      tag_44\n      jumpi\n      0x00\n      dup1\n      revert\n    tag_44:\n      pop\n      tag_45\n      0x04\n      dup1\n      calldatasize\n      sub\n      dup2\n      add\n      swap1\n      tag_46\n      swap2\n      swap1\n      tag_20\n      jump\t// in\n    tag_46:\n      tag_47\n      jump\t// in\n    tag_45:\n      mload(0x40)\n      tag_48\n      swap6\n      swap5\n      swap4\n      swap3\n      swap2\n      swap1\n      tag_49\n      jump\t// in\n    tag_48:\n      mload(0x40)\n      dup1\n      swap2\n      sub\n      swap1\n      return\n        /* \"Crownfunding\":347:373  uint public approversCount */\n    tag_8:\n      callvalue\n      dup1\n      iszero\n      tag_50\n      jumpi\n      0x00\n      dup1\n      revert\n    tag_50:\n      pop\n      tag_51\n      tag_52\n      jump\t// in\n    tag_51:\n      mload(0x40)\n      tag_53\n      swap2\n      swap1\n      tag_43\n      jump\t// in\n    tag_53:\n      mload(0x40)\n      dup1\n      swap2\n      sub\n      swap1\n      return\n        /* \"Crownfunding\":1229:1531  function createRequest(string memory description, uint value, address recipient) ... */\n    tag_9:\n      callvalue\n      dup1\n      iszero\n      tag_54\n      jumpi\n      0x00\n      dup1\n      revert\n    tag_54:\n      pop\n      tag_55\n      0x04\n      dup1\n      calldatasize\n      sub\n      dup2\n      add\n      swap1\n      tag_56\n      swap2\n      swap1\n      tag_57\n      jump\t// in\n    tag_56:\n      tag_58\n      jump\t// in\n    tag_55:\n      stop\n        /* \"Crownfunding\":1835:1935  function getMinimunContribute() public view returns (uint) {... */\n    tag_10:\n      callvalue\n      dup1\n      iszero\n      tag_59\n      jumpi\n      0x00\n      dup1\n      revert\n    tag_59:\n      pop\n      tag_60\n      tag_61\n      jump\t// in\n    tag_60:\n      mload(0x40)\n      tag_62\n      swap2\n      swap1\n      tag_43\n      jump\t// in\n    tag_62:\n      mload(0x40)\n      dup1\n      swap2\n      sub\n      swap1\n      return\n        /* \"Crownfunding\":426:448  uint public numRequest */\n    tag_11:\n      callvalue\n      dup1\n      iszero\n      tag_63\n      jumpi\n      0x00\n      dup1\n      revert\n    tag_63:\n      pop\n      tag_64\n      tag_65\n      jump\t// in\n    tag_64:\n      mload(0x40)\n      tag_66\n      swap2\n      swap1\n      tag_43\n      jump\t// in\n    tag_66:\n      mload(0x40)\n      dup1\n      swap2\n      sub\n      swap1\n      return\n        /* \"Crownfunding\":950:1033  function getManager() public view returns (address) {... */\n    tag_12:\n      callvalue\n      dup1\n      iszero\n      tag_67\n      jumpi\n      0x00\n      dup1\n      revert\n    tag_67:\n      pop\n      tag_68\n      tag_69\n      jump\t// in\n    tag_68:\n      mload(0x40)\n      tag_70\n      swap2\n      swap1\n      tag_38\n      jump\t// in\n    tag_70:\n      mload(0x40)\n      dup1\n      swap2\n      sub\n      swap1\n      return\n        /* \"Crownfunding\":1039:1223  function contribute() public payable {... */\n    tag_13:\n      tag_71\n      tag_72\n      jump\t// in\n    tag_71:\n      stop\n        /* \"Crownfunding\":1537:1828  function approveRequest(uint index) public isContributor {... */\n    tag_14:\n      callvalue\n      dup1\n      iszero\n      tag_73\n      jumpi\n      0x00\n      dup1\n      revert\n    tag_73:\n      pop\n      tag_74\n      0x04\n      dup1\n      calldatasize\n      sub\n      dup2\n      add\n      swap1\n      tag_75\n      swap2\n      swap1\n      tag_20\n      jump\t// in\n    tag_75:\n      tag_76\n      jump\t// in\n    tag_74:\n      stop\n        /* \"Crownfunding\":1941:2304  function finalizeRequest(uint index)  public restricted {... */\n    tag_21:\n        /* \"Crownfunding\":555:562  manager */\n      0x00\n      dup1\n      sload\n      swap1\n      0x0100\n      exp\n      swap1\n      div\n      0xffffffffffffffffffffffffffffffffffffffff\n      and\n        /* \"Crownfunding\":541:562  msg.sender == manager */\n      0xffffffffffffffffffffffffffffffffffffffff\n      and\n        /* \"Crownfunding\":541:551  msg.sender */\n      caller\n        /* \"Crownfunding\":541:562  msg.sender == manager */\n      0xffffffffffffffffffffffffffffffffffffffff\n      and\n      eq\n        /* \"Crownfunding\":533:563  require(msg.sender == manager) */\n      tag_78\n      jumpi\n      0x00\n      dup1\n      revert\n    tag_78:\n        /* \"Crownfunding\":2007:2030  Request storage request */\n      0x00\n        /* \"Crownfunding\":2033:2041  requests */\n      0x05\n        /* \"Crownfunding\":2033:2048  requests[index] */\n      0x00\n        /* \"Crownfunding\":2042:2047  index */\n      dup4\n        /* \"Crownfunding\":2033:2048  requests[index] */\n      dup2\n      mstore\n      0x20\n      add\n      swap1\n      dup2\n      mstore\n      0x20\n      add\n      0x00\n      keccak256\n        /* \"Crownfunding\":2007:2048  Request storage request = requests[index] */\n      swap1\n      pop\n        /* \"Crownfunding\":2067:2074  request */\n      dup1\n        /* \"Crownfunding\":2067:2083  request.complete */\n      0x02\n      add\n      0x14\n      swap1\n      sload\n      swap1\n      0x0100\n      exp\n      swap1\n      div\n      0xff\n      and\n        /* \"Crownfunding\":2066:2083  !request.complete */\n      iszero\n        /* \"Crownfunding\":2058:2084  require(!request.complete) */\n      tag_80\n      jumpi\n      0x00\n      dup1\n      revert\n    tag_80:\n        /* \"Crownfunding\":2144:2145  2 */\n      0x02\n        /* \"Crownfunding\":2127:2141  approversCount */\n      dup1\n      sload\n        /* \"Crownfunding\":2127:2145  approversCount / 2 */\n      tag_81\n      swap2\n      swap1\n      tag_82\n      jump\t// in\n    tag_81:\n        /* \"Crownfunding\":2102:2109  request */\n      dup2\n        /* \"Crownfunding\":2102:2123  request.approvalCount */\n      0x03\n      add\n      sload\n        /* \"Crownfunding\":2102:2146  request.approvalCount > (approversCount / 2) */\n      gt\n        /* \"Crownfunding\":2094:2147  require(request.approvalCount > (approversCount / 2)) */\n      tag_83\n      jumpi\n      0x00\n      dup1\n      revert\n    tag_83:\n        /* \"Crownfunding\":2189:2196  request */\n      dup1\n        /* \"Crownfunding\":2189:2202  request.value */\n      0x01\n      add\n      sload\n        /* \"Crownfunding\":2165:2186  address(this).balance */\n      selfbalance\n        /* \"Crownfunding\":2165:2202  address(this).balance > request.value */\n      gt\n        /* \"Crownfunding\":2157:2203  require(address(this).balance > request.value) */\n      tag_84\n      jumpi\n      0x00\n      dup1\n      revert\n    tag_84:\n        /* \"Crownfunding\":2222:2229  request */\n      dup1\n        /* \"Crownfunding\":2222:2239  request.recipient */\n      0x02\n      add\n      0x00\n      swap1\n      sload\n      swap1\n      0x0100\n      exp\n      swap1\n      div\n      0xffffffffffffffffffffffffffffffffffffffff\n      and\n        /* \"Crownfunding\":2214:2249  payable(request.recipient).transfer */\n      0xffffffffffffffffffffffffffffffffffffffff\n      and\n        /* \"Crownfunding\":2214:2264  payable(request.recipient).transfer(request.value) */\n      0x08fc\n        /* \"Crownfunding\":2250:2257  request */\n      dup3\n        /* \"Crownfunding\":2250:2263  request.value */\n      0x01\n      add\n      sload\n        /* \"Crownfunding\":2214:2264  payable(request.recipient).transfer(request.value) */\n      swap1\n      dup2\n      iszero\n      mul\n      swap1\n      mload(0x40)\n      0x00\n      mload(0x40)\n      dup1\n      dup4\n      sub\n      dup2\n      dup6\n      dup9\n      dup9\n      call\n      swap4\n      pop\n      pop\n      pop\n      pop\n      iszero\n      dup1\n      iszero\n      tag_86\n      jumpi\n      returndatasize\n      0x00\n      dup1\n      returndatacopy\n      revert(0x00, returndatasize)\n    tag_86:\n      pop\n        /* \"Crownfunding\":2293:2297  true */\n      0x01\n        /* \"Crownfunding\":2274:2281  request */\n      dup2\n        /* \"Crownfunding\":2274:2290  request.complete */\n      0x02\n      add\n      0x14\n        /* \"Crownfunding\":2274:2297  request.complete = true */\n      0x0100\n      exp\n      dup2\n      sload\n      dup2\n      0xff\n      mul\n      not\n      and\n      swap1\n      dup4\n      iszero\n      iszero\n      mul\n      or\n      swap1\n      sstore\n      pop\n        /* \"Crownfunding\":1997:2304  {... */\n      pop\n        /* \"Crownfunding\":1941:2304  function finalizeRequest(uint index)  public restricted {... */\n      pop\n      jump\t// out\n        /* \"Crownfunding\":379:420  mapping(address => bool) public approvers */\n    tag_26:\n      mstore(0x20, 0x03)\n      dup1\n      0x00\n      mstore\n      keccak256(0x00, 0x40)\n      0x00\n      swap2\n      pop\n      sload\n      swap1\n      0x0100\n      exp\n      swap1\n      div\n      0xff\n      and\n      dup2\n      jump\t// out\n        /* \"Crownfunding\":2310:2559  function getSummary() public view returns (uint, uint, uint, uint, address) {... */\n    tag_31:\n        /* \"Crownfunding\":2353:2357  uint */\n      0x00\n        /* \"Crownfunding\":2359:2363  uint */\n      dup1\n        /* \"Crownfunding\":2365:2369  uint */\n      0x00\n        /* \"Crownfunding\":2371:2375  uint */\n      dup1\n        /* \"Crownfunding\":2377:2384  address */\n      0x00\n        /* \"Crownfunding\":2417:2434  minimunContribute */\n      sload(0x01)\n        /* \"Crownfunding\":2448:2469  address(this).balance */\n      selfbalance\n        /* \"Crownfunding\":2483:2493  numRequest */\n      sload(0x04)\n        /* \"Crownfunding\":2507:2521  approversCount */\n      sload(0x02)\n        /* \"Crownfunding\":2535:2542  manager */\n      0x00\n      dup1\n      sload\n      swap1\n      0x0100\n      exp\n      swap1\n      div\n      0xffffffffffffffffffffffffffffffffffffffff\n      and\n        /* \"Crownfunding\":2396:2552  return (... */\n      swap5\n      pop\n      swap5\n      pop\n      swap5\n      pop\n      swap5\n      pop\n      swap5\n      pop\n        /* \"Crownfunding\":2310:2559  function getSummary() public view returns (uint, uint, uint, uint, address) {... */\n      swap1\n      swap2\n      swap3\n      swap4\n      swap5\n      jump\t// out\n        /* \"Crownfunding\":284:306  address public manager */\n    tag_36:\n      0x00\n      dup1\n      sload\n      swap1\n      0x0100\n      exp\n      swap1\n      div\n      0xffffffffffffffffffffffffffffffffffffffff\n      and\n      dup2\n      jump\t// out\n        /* \"Crownfunding\":312:341  uint public minimunContribute */\n    tag_41:\n      sload(0x01)\n      dup2\n      jump\t// out\n        /* \"Crownfunding\":454:494  mapping(uint => Request) public requests */\n    tag_47:\n      mstore(0x20, 0x05)\n      dup1\n      0x00\n      mstore\n      keccak256(0x00, 0x40)\n      0x00\n      swap2\n      pop\n      swap1\n      pop\n      dup1\n      0x00\n      add\n      dup1\n      sload\n      tag_88\n      swap1\n      tag_89\n      jump\t// in\n    tag_88:\n      dup1\n      0x1f\n      add\n      0x20\n      dup1\n      swap2\n      div\n      mul\n      0x20\n      add\n      mload(0x40)\n      swap1\n      dup2\n      add\n      0x40\n      mstore\n      dup1\n      swap3\n      swap2\n      swap1\n      dup2\n      dup2\n      mstore\n      0x20\n      add\n      dup3\n      dup1\n      sload\n      tag_90\n      swap1\n      tag_89\n      jump\t// in\n    tag_90:\n      dup1\n      iszero\n      tag_91\n      jumpi\n      dup1\n      0x1f\n      lt\n      tag_92\n      jumpi\n      0x0100\n      dup1\n      dup4\n      sload\n      div\n      mul\n      dup4\n      mstore\n      swap2\n      0x20\n      add\n      swap2\n      jump(tag_91)\n    tag_92:\n      dup3\n      add\n      swap2\n      swap1\n      0x00\n      mstore\n      keccak256(0x00, 0x20)\n      swap1\n    tag_93:\n      dup2\n      sload\n      dup2\n      mstore\n      swap1\n      0x01\n      add\n      swap1\n      0x20\n      add\n      dup1\n      dup4\n      gt\n      tag_93\n      jumpi\n      dup3\n      swap1\n      sub\n      0x1f\n      and\n      dup3\n      add\n      swap2\n    tag_91:\n      pop\n      pop\n      pop\n      pop\n      pop\n      swap1\n      dup1\n      0x01\n      add\n      sload\n      swap1\n      dup1\n      0x02\n      add\n      0x00\n      swap1\n      sload\n      swap1\n      0x0100\n      exp\n      swap1\n      div\n      0xffffffffffffffffffffffffffffffffffffffff\n      and\n      swap1\n      dup1\n      0x02\n      add\n      0x14\n      swap1\n      sload\n      swap1\n      0x0100\n      exp\n      swap1\n      div\n      0xff\n      and\n      swap1\n      dup1\n      0x03\n      add\n      sload\n      swap1\n      pop\n      dup6\n      jump\t// out\n        /* \"Crownfunding\":347:373  uint public approversCount */\n    tag_52:\n      sload(0x02)\n      dup2\n      jump\t// out\n        /* \"Crownfunding\":1229:1531  function createRequest(string memory description, uint value, address recipient) ... */\n    tag_58:\n        /* \"Crownfunding\":555:562  manager */\n      0x00\n      dup1\n      sload\n      swap1\n      0x0100\n      exp\n      swap1\n      div\n      0xffffffffffffffffffffffffffffffffffffffff\n      and\n        /* \"Crownfunding\":541:562  msg.sender == manager */\n      0xffffffffffffffffffffffffffffffffffffffff\n      and\n        /* \"Crownfunding\":541:551  msg.sender */\n      caller\n        /* \"Crownfunding\":541:562  msg.sender == manager */\n      0xffffffffffffffffffffffffffffffffffffffff\n      and\n      eq\n        /* \"Crownfunding\":533:563  require(msg.sender == manager) */\n      tag_95\n      jumpi\n      0x00\n      dup1\n      revert\n    tag_95:\n        /* \"Crownfunding\":1351:1374  Request storage request */\n      0x00\n        /* \"Crownfunding\":1377:1385  requests */\n      0x05\n        /* \"Crownfunding\":1377:1399  requests[numRequest++] */\n      0x00\n        /* \"Crownfunding\":1386:1396  numRequest */\n      0x04\n      0x00\n        /* \"Crownfunding\":1386:1398  numRequest++ */\n      dup2\n      sload\n      dup1\n      swap3\n      swap2\n      swap1\n      tag_97\n      swap1\n      tag_98\n      jump\t// in\n    tag_97:\n      swap2\n      swap1\n      pop\n      sstore\n        /* \"Crownfunding\":1377:1399  requests[numRequest++] */\n      dup2\n      mstore\n      0x20\n      add\n      swap1\n      dup2\n      mstore\n      0x20\n      add\n      0x00\n      keccak256\n        /* \"Crownfunding\":1351:1399  Request storage request = requests[numRequest++] */\n      swap1\n      pop\n        /* \"Crownfunding\":1435:1446  description */\n      dup4\n        /* \"Crownfunding\":1413:1420  request */\n      dup2\n        /* \"Crownfunding\":1413:1432  request.description */\n      0x00\n      add\n        /* \"Crownfunding\":1413:1446  request.description = description */\n      swap1\n      dup2\n      tag_99\n      swap2\n      swap1\n      tag_100\n      jump\t// in\n    tag_99:\n      pop\n        /* \"Crownfunding\":1476:1481  value */\n      dup3\n        /* \"Crownfunding\":1460:1467  request */\n      dup2\n        /* \"Crownfunding\":1460:1473  request.value */\n      0x01\n      add\n        /* \"Crownfunding\":1460:1481  request.value = value */\n      dup2\n      swap1\n      sstore\n      pop\n        /* \"Crownfunding\":1515:1524  recipient */\n      dup2\n        /* \"Crownfunding\":1495:1502  request */\n      dup2\n        /* \"Crownfunding\":1495:1512  request.recipient */\n      0x02\n      add\n      0x00\n        /* \"Crownfunding\":1495:1524  request.recipient = recipient */\n      0x0100\n      exp\n      dup2\n      sload\n      dup2\n      0xffffffffffffffffffffffffffffffffffffffff\n      mul\n      not\n      and\n      swap1\n      dup4\n      0xffffffffffffffffffffffffffffffffffffffff\n      and\n      mul\n      or\n      swap1\n      sstore\n      pop\n        /* \"Crownfunding\":1337:1531  {... */\n      pop\n        /* \"Crownfunding\":1229:1531  function createRequest(string memory description, uint value, address recipient) ... */\n      pop\n      pop\n      pop\n      jump\t// out\n        /* \"Crownfunding\":1835:1935  function getMinimunContribute() public view returns (uint) {... */\n    tag_61:\n        /* \"Crownfunding\":1888:1892  uint */\n      0x00\n        /* \"Crownfunding\":1911:1928  minimunContribute */\n      sload(0x01)\n        /* \"Crownfunding\":1904:1928  return minimunContribute */\n      swap1\n      pop\n        /* \"Crownfunding\":1835:1935  function getMinimunContribute() public view returns (uint) {... */\n      swap1\n      jump\t// out\n        /* \"Crownfunding\":426:448  uint public numRequest */\n    tag_65:\n      sload(0x04)\n      dup2\n      jump\t// out\n        /* \"Crownfunding\":950:1033  function getManager() public view returns (address) {... */\n    tag_69:\n        /* \"Crownfunding\":993:1000  address */\n      0x00\n        /* \"Crownfunding\":1019:1026  manager */\n      dup1\n      0x00\n      swap1\n      sload\n      swap1\n      0x0100\n      exp\n      swap1\n      div\n      0xffffffffffffffffffffffffffffffffffffffff\n      and\n        /* \"Crownfunding\":1012:1026  return manager */\n      swap1\n      pop\n        /* \"Crownfunding\":950:1033  function getManager() public view returns (address) {... */\n      swap1\n      jump\t// out\n        /* \"Crownfunding\":1039:1223  function contribute() public payable {... */\n    tag_72:\n        /* \"Crownfunding\":1106:1123  minimunContribute */\n      sload(0x01)\n        /* \"Crownfunding\":1094:1103  msg.value */\n      callvalue\n        /* \"Crownfunding\":1094:1123  msg.value > minimunContribute */\n      gt\n        /* \"Crownfunding\":1086:1124  require(msg.value > minimunContribute) */\n      tag_104\n      jumpi\n      0x00\n      dup1\n      revert\n    tag_104:\n        /* \"Crownfunding\":1139:1148  approvers */\n      0x03\n        /* \"Crownfunding\":1139:1160  approvers[msg.sender] */\n      0x00\n        /* \"Crownfunding\":1149:1159  msg.sender */\n      caller\n        /* \"Crownfunding\":1139:1160  approvers[msg.sender] */\n      0xffffffffffffffffffffffffffffffffffffffff\n      and\n      0xffffffffffffffffffffffffffffffffffffffff\n      and\n      dup2\n      mstore\n      0x20\n      add\n      swap1\n      dup2\n      mstore\n      0x20\n      add\n      0x00\n      keccak256\n      0x00\n      swap1\n      sload\n      swap1\n      0x0100\n      exp\n      swap1\n      div\n      0xff\n      and\n        /* \"Crownfunding\":1134:1178  if (!approvers[msg.sender]) approversCount++ */\n      tag_105\n      jumpi\n        /* \"Crownfunding\":1162:1176  approversCount */\n      0x02\n      0x00\n        /* \"Crownfunding\":1162:1178  approversCount++ */\n      dup2\n      sload\n      dup1\n      swap3\n      swap2\n      swap1\n      tag_106\n      swap1\n      tag_98\n      jump\t// in\n    tag_106:\n      swap2\n      swap1\n      pop\n      sstore\n      pop\n        /* \"Crownfunding\":1134:1178  if (!approvers[msg.sender]) approversCount++ */\n    tag_105:\n        /* \"Crownfunding\":1212:1216  true */\n      0x01\n        /* \"Crownfunding\":1188:1197  approvers */\n      0x03\n        /* \"Crownfunding\":1188:1209  approvers[msg.sender] */\n      0x00\n        /* \"Crownfunding\":1198:1208  msg.sender */\n      caller\n        /* \"Crownfunding\":1188:1209  approvers[msg.sender] */\n      0xffffffffffffffffffffffffffffffffffffffff\n      and\n      0xffffffffffffffffffffffffffffffffffffffff\n      and\n      dup2\n      mstore\n      0x20\n      add\n      swap1\n      dup2\n      mstore\n      0x20\n      add\n      0x00\n      keccak256\n      0x00\n        /* \"Crownfunding\":1188:1216  approvers[msg.sender] = true */\n      0x0100\n      exp\n      dup2\n      sload\n      dup2\n      0xff\n      mul\n      not\n      and\n      swap1\n      dup4\n      iszero\n      iszero\n      mul\n      or\n      swap1\n      sstore\n      pop\n        /* \"Crownfunding\":1039:1223  function contribute() public payable {... */\n      jump\t// out\n        /* \"Crownfunding\":1537:1828  function approveRequest(uint index) public isContributor {... */\n    tag_76:\n        /* \"Crownfunding\":630:639  approvers */\n      0x03\n        /* \"Crownfunding\":630:651  approvers[msg.sender] */\n      0x00\n        /* \"Crownfunding\":640:650  msg.sender */\n      caller\n        /* \"Crownfunding\":630:651  approvers[msg.sender] */\n      0xffffffffffffffffffffffffffffffffffffffff\n      and\n      0xffffffffffffffffffffffffffffffffffffffff\n      and\n      dup2\n      mstore\n      0x20\n      add\n      swap1\n      dup2\n      mstore\n      0x20\n      add\n      0x00\n      keccak256\n      0x00\n      swap1\n      sload\n      swap1\n      0x0100\n      exp\n      swap1\n      div\n      0xff\n      and\n        /* \"Crownfunding\":622:652  require(approvers[msg.sender]) */\n      tag_108\n      jumpi\n      0x00\n      dup1\n      revert\n    tag_108:\n        /* \"Crownfunding\":1604:1627  Request storage request */\n      0x00\n        /* \"Crownfunding\":1630:1638  requests */\n      0x05\n        /* \"Crownfunding\":1630:1645  requests[index] */\n      0x00\n        /* \"Crownfunding\":1639:1644  index */\n      dup4\n        /* \"Crownfunding\":1630:1645  requests[index] */\n      dup2\n      mstore\n      0x20\n      add\n      swap1\n      dup2\n      mstore\n      0x20\n      add\n      0x00\n      keccak256\n        /* \"Crownfunding\":1604:1645  Request storage request = requests[index] */\n      swap1\n      pop\n        /* \"Crownfunding\":1712:1719  request */\n      dup1\n        /* \"Crownfunding\":1712:1729  request.approvals */\n      0x04\n      add\n        /* \"Crownfunding\":1712:1741  request.approvals[msg.sender] */\n      0x00\n        /* \"Crownfunding\":1730:1740  msg.sender */\n      caller\n        /* \"Crownfunding\":1712:1741  request.approvals[msg.sender] */\n      0xffffffffffffffffffffffffffffffffffffffff\n      and\n      0xffffffffffffffffffffffffffffffffffffffff\n      and\n      dup2\n      mstore\n      0x20\n      add\n      swap1\n      dup2\n      mstore\n      0x20\n      add\n      0x00\n      keccak256\n      0x00\n      swap1\n      sload\n      swap1\n      0x0100\n      exp\n      swap1\n      div\n      0xff\n      and\n        /* \"Crownfunding\":1711:1741  !request.approvals[msg.sender] */\n      iszero\n        /* \"Crownfunding\":1703:1742  require(!request.approvals[msg.sender]) */\n      tag_110\n      jumpi\n      0x00\n      dup1\n      revert\n    tag_110:\n        /* \"Crownfunding\":1784:1788  true */\n      0x01\n        /* \"Crownfunding\":1752:1759  request */\n      dup2\n        /* \"Crownfunding\":1752:1769  request.approvals */\n      0x04\n      add\n        /* \"Crownfunding\":1752:1781  request.approvals[msg.sender] */\n      0x00\n        /* \"Crownfunding\":1770:1780  msg.sender */\n      caller\n        /* \"Crownfunding\":1752:1781  request.approvals[msg.sender] */\n      0xffffffffffffffffffffffffffffffffffffffff\n      and\n      0xffffffffffffffffffffffffffffffffffffffff\n      and\n      dup2\n      mstore\n      0x20\n      add\n      swap1\n      dup2\n      mstore\n      0x20\n      add\n      0x00\n      keccak256\n      0x00\n        /* \"Crownfunding\":1752:1788  request.approvals[msg.sender] = true */\n      0x0100\n      exp\n      dup2\n      sload\n      dup2\n      0xff\n      mul\n      not\n      and\n      swap1\n      dup4\n      iszero\n      iszero\n      mul\n      or\n      swap1\n      sstore\n      pop\n        /* \"Crownfunding\":1798:1805  request */\n      dup1\n        /* \"Crownfunding\":1798:1819  request.approvalCount */\n      0x03\n      add\n      0x00\n        /* \"Crownfunding\":1798:1821  request.approvalCount++ */\n      dup2\n      sload\n      dup1\n      swap3\n      swap2\n      swap1\n      tag_111\n      swap1\n      tag_98\n      jump\t// in\n    tag_111:\n      swap2\n      swap1\n      pop\n      sstore\n      pop\n        /* \"Crownfunding\":1594:1828  {... */\n      pop\n        /* \"Crownfunding\":1537:1828  function approveRequest(uint index) public isContributor {... */\n      pop\n      jump\t// out\n        /* \"#utility.yul\":7:82   */\n    tag_112:\n        /* \"#utility.yul\":40:46   */\n      0x00\n        /* \"#utility.yul\":73:75   */\n      0x40\n        /* \"#utility.yul\":67:76   */\n      mload\n        /* \"#utility.yul\":57:76   */\n      swap1\n      pop\n        /* \"#utility.yul\":7:82   */\n      swap1\n      jump\t// out\n        /* \"#utility.yul\":88:205   */\n    tag_113:\n        /* \"#utility.yul\":197:198   */\n      0x00\n        /* \"#utility.yul\":194:195   */\n      dup1\n        /* \"#utility.yul\":187:199   */\n      revert\n        /* \"#utility.yul\":211:328   */\n    tag_114:\n        /* \"#utility.yul\":320:321   */\n      0x00\n        /* \"#utility.yul\":317:318   */\n      dup1\n        /* \"#utility.yul\":310:322   */\n      revert\n        /* \"#utility.yul\":334:411   */\n    tag_115:\n        /* \"#utility.yul\":371:378   */\n      0x00\n        /* \"#utility.yul\":400:405   */\n      dup2\n        /* \"#utility.yul\":389:405   */\n      swap1\n      pop\n        /* \"#utility.yul\":334:411   */\n      swap2\n      swap1\n      pop\n      jump\t// out\n        /* \"#utility.yul\":417:539   */\n    tag_116:\n        /* \"#utility.yul\":490:514   */\n      tag_164\n        /* \"#utility.yul\":508:513   */\n      dup2\n        /* \"#utility.yul\":490:514   */\n      tag_115\n      jump\t// in\n    tag_164:\n        /* \"#utility.yul\":483:488   */\n      dup2\n        /* \"#utility.yul\":480:515   */\n      eq\n        /* \"#utility.yul\":470:533   */\n      tag_165\n      jumpi\n        /* \"#utility.yul\":529:530   */\n      0x00\n        /* \"#utility.yul\":526:527   */\n      dup1\n        /* \"#utility.yul\":519:531   */\n      revert\n        /* \"#utility.yul\":470:533   */\n    tag_165:\n        /* \"#utility.yul\":417:539   */\n      pop\n      jump\t// out\n        /* \"#utility.yul\":545:684   */\n    tag_117:\n        /* \"#utility.yul\":591:596   */\n      0x00\n        /* \"#utility.yul\":629:635   */\n      dup2\n        /* \"#utility.yul\":616:636   */\n      calldataload\n        /* \"#utility.yul\":607:636   */\n      swap1\n      pop\n        /* \"#utility.yul\":645:678   */\n      tag_167\n        /* \"#utility.yul\":672:677   */\n      dup2\n        /* \"#utility.yul\":645:678   */\n      tag_116\n      jump\t// in\n    tag_167:\n        /* \"#utility.yul\":545:684   */\n      swap3\n      swap2\n      pop\n      pop\n      jump\t// out\n        /* \"#utility.yul\":690:1019   */\n    tag_20:\n        /* \"#utility.yul\":749:755   */\n      0x00\n        /* \"#utility.yul\":798:800   */\n      0x20\n        /* \"#utility.yul\":786:795   */\n      dup3\n        /* \"#utility.yul\":777:784   */\n      dup5\n        /* \"#utility.yul\":773:796   */\n      sub\n        /* \"#utility.yul\":769:801   */\n      slt\n        /* \"#utility.yul\":766:885   */\n      iszero\n      tag_169\n      jumpi\n        /* \"#utility.yul\":804:883   */\n      tag_170\n      tag_113\n      jump\t// in\n    tag_170:\n        /* \"#utility.yul\":766:885   */\n    tag_169:\n        /* \"#utility.yul\":924:925   */\n      0x00\n        /* \"#utility.yul\":949:1002   */\n      tag_171\n        /* \"#utility.yul\":994:1001   */\n      dup5\n        /* \"#utility.yul\":985:991   */\n      dup3\n        /* \"#utility.yul\":974:983   */\n      dup6\n        /* \"#utility.yul\":970:992   */\n      add\n        /* \"#utility.yul\":949:1002   */\n      tag_117\n      jump\t// in\n    tag_171:\n        /* \"#utility.yul\":939:1002   */\n      swap2\n      pop\n        /* \"#utility.yul\":895:1012   */\n      pop\n        /* \"#utility.yul\":690:1019   */\n      swap3\n      swap2\n      pop\n      pop\n      jump\t// out\n        /* \"#utility.yul\":1025:1151   */\n    tag_118:\n        /* \"#utility.yul\":1062:1069   */\n      0x00\n        /* \"#utility.yul\":1102:1144   */\n      0xffffffffffffffffffffffffffffffffffffffff\n        /* \"#utility.yul\":1095:1100   */\n      dup3\n        /* \"#utility.yul\":1091:1145   */\n      and\n        /* \"#utility.yul\":1080:1145   */\n      swap1\n      pop\n        /* \"#utility.yul\":1025:1151   */\n      swap2\n      swap1\n      pop\n      jump\t// out\n        /* \"#utility.yul\":1157:1253   */\n    tag_119:\n        /* \"#utility.yul\":1194:1201   */\n      0x00\n        /* \"#utility.yul\":1223:1247   */\n      tag_174\n        /* \"#utility.yul\":1241:1246   */\n      dup3\n        /* \"#utility.yul\":1223:1247   */\n      tag_118\n      jump\t// in\n    tag_174:\n        /* \"#utility.yul\":1212:1247   */\n      swap1\n      pop\n        /* \"#utility.yul\":1157:1253   */\n      swap2\n      swap1\n      pop\n      jump\t// out\n        /* \"#utility.yul\":1259:1381   */\n    tag_120:\n        /* \"#utility.yul\":1332:1356   */\n      tag_176\n        /* \"#utility.yul\":1350:1355   */\n      dup2\n        /* \"#utility.yul\":1332:1356   */\n      tag_119\n      jump\t// in\n    tag_176:\n        /* \"#utility.yul\":1325:1330   */\n      dup2\n        /* \"#utility.yul\":1322:1357   */\n      eq\n        /* \"#utility.yul\":1312:1375   */\n      tag_177\n      jumpi\n        /* \"#utility.yul\":1371:1372   */\n      0x00\n        /* \"#utility.yul\":1368:1369   */\n      dup1\n        /* \"#utility.yul\":1361:1373   */\n      revert\n        /* \"#utility.yul\":1312:1375   */\n    tag_177:\n        /* \"#utility.yul\":1259:1381   */\n      pop\n      jump\t// out\n        /* \"#utility.yul\":1387:1526   */\n    tag_121:\n        /* \"#utility.yul\":1433:1438   */\n      0x00\n        /* \"#utility.yul\":1471:1477   */\n      dup2\n        /* \"#utility.yul\":1458:1478   */\n      calldataload\n        /* \"#utility.yul\":1449:1478   */\n      swap1\n      pop\n        /* \"#utility.yul\":1487:1520   */\n      tag_179\n        /* \"#utility.yul\":1514:1519   */\n      dup2\n        /* \"#utility.yul\":1487:1520   */\n      tag_120\n      jump\t// in\n    tag_179:\n        /* \"#utility.yul\":1387:1526   */\n      swap3\n      swap2\n      pop\n      pop\n      jump\t// out\n        /* \"#utility.yul\":1532:1861   */\n    tag_25:\n        /* \"#utility.yul\":1591:1597   */\n      0x00\n        /* \"#utility.yul\":1640:1642   */\n      0x20\n        /* \"#utility.yul\":1628:1637   */\n      dup3\n        /* \"#utility.yul\":1619:1626   */\n      dup5\n        /* \"#utility.yul\":1615:1638   */\n      sub\n        /* \"#utility.yul\":1611:1643   */\n      slt\n        /* \"#utility.yul\":1608:1727   */\n      iszero\n      tag_181\n      jumpi\n        /* \"#utility.yul\":1646:1725   */\n      tag_182\n      tag_113\n      jump\t// in\n    tag_182:\n        /* \"#utility.yul\":1608:1727   */\n    tag_181:\n        /* \"#utility.yul\":1766:1767   */\n      0x00\n        /* \"#utility.yul\":1791:1844   */\n      tag_183\n        /* \"#utility.yul\":1836:1843   */\n      dup5\n        /* \"#utility.yul\":1827:1833   */\n      dup3\n        /* \"#utility.yul\":1816:1825   */\n      dup6\n        /* \"#utility.yul\":1812:1834   */\n      add\n        /* \"#utility.yul\":1791:1844   */\n      tag_121\n      jump\t// in\n    tag_183:\n        /* \"#utility.yul\":1781:1844   */\n      swap2\n      pop\n        /* \"#utility.yul\":1737:1854   */\n      pop\n        /* \"#utility.yul\":1532:1861   */\n      swap3\n      swap2\n      pop\n      pop\n      jump\t// out\n        /* \"#utility.yul\":1867:1957   */\n    tag_122:\n        /* \"#utility.yul\":1901:1908   */\n      0x00\n        /* \"#utility.yul\":1944:1949   */\n      dup2\n        /* \"#utility.yul\":1937:1950   */\n      iszero\n        /* \"#utility.yul\":1930:1951   */\n      iszero\n        /* \"#utility.yul\":1919:1951   */\n      swap1\n      pop\n        /* \"#utility.yul\":1867:1957   */\n      swap2\n      swap1\n      pop\n      jump\t// out\n        /* \"#utility.yul\":1963:2072   */\n    tag_123:\n        /* \"#utility.yul\":2044:2065   */\n      tag_186\n        /* \"#utility.yul\":2059:2064   */\n      dup2\n        /* \"#utility.yul\":2044:2065   */\n      tag_122\n      jump\t// in\n    tag_186:\n        /* \"#utility.yul\":2039:2042   */\n      dup3\n        /* \"#utility.yul\":2032:2066   */\n      mstore\n        /* \"#utility.yul\":1963:2072   */\n      pop\n      pop\n      jump\t// out\n        /* \"#utility.yul\":2078:2288   */\n    tag_28:\n        /* \"#utility.yul\":2165:2169   */\n      0x00\n        /* \"#utility.yul\":2203:2205   */\n      0x20\n        /* \"#utility.yul\":2192:2201   */\n      dup3\n        /* \"#utility.yul\":2188:2206   */\n      add\n        /* \"#utility.yul\":2180:2206   */\n      swap1\n      pop\n        /* \"#utility.yul\":2216:2281   */\n      tag_188\n        /* \"#utility.yul\":2278:2279   */\n      0x00\n        /* \"#utility.yul\":2267:2276   */\n      dup4\n        /* \"#utility.yul\":2263:2280   */\n      add\n        /* \"#utility.yul\":2254:2260   */\n      dup5\n        /* \"#utility.yul\":2216:2281   */\n      tag_123\n      jump\t// in\n    tag_188:\n        /* \"#utility.yul\":2078:2288   */\n      swap3\n      swap2\n      pop\n      pop\n      jump\t// out\n        /* \"#utility.yul\":2294:2412   */\n    tag_124:\n        /* \"#utility.yul\":2381:2405   */\n      tag_190\n        /* \"#utility.yul\":2399:2404   */\n      dup2\n        /* \"#utility.yul\":2381:2405   */\n      tag_115\n      jump\t// in\n    tag_190:\n        /* \"#utility.yul\":2376:2379   */\n      dup3\n        /* \"#utility.yul\":2369:2406   */\n      mstore\n        /* \"#utility.yul\":2294:2412   */\n      pop\n      pop\n      jump\t// out\n        /* \"#utility.yul\":2418:2536   */\n    tag_125:\n        /* \"#utility.yul\":2505:2529   */\n      tag_192\n        /* \"#utility.yul\":2523:2528   */\n      dup2\n        /* \"#utility.yul\":2505:2529   */\n      tag_119\n      jump\t// in\n    tag_192:\n        /* \"#utility.yul\":2500:2503   */\n      dup3\n        /* \"#utility.yul\":2493:2530   */\n      mstore\n        /* \"#utility.yul\":2418:2536   */\n      pop\n      pop\n      jump\t// out\n        /* \"#utility.yul\":2542:3206   */\n    tag_33:\n        /* \"#utility.yul\":2747:2751   */\n      0x00\n        /* \"#utility.yul\":2785:2788   */\n      0xa0\n        /* \"#utility.yul\":2774:2783   */\n      dup3\n        /* \"#utility.yul\":2770:2789   */\n      add\n        /* \"#utility.yul\":2762:2789   */\n      swap1\n      pop\n        /* \"#utility.yul\":2799:2870   */\n      tag_194\n        /* \"#utility.yul\":2867:2868   */\n      0x00\n        /* \"#utility.yul\":2856:2865   */\n      dup4\n        /* \"#utility.yul\":2852:2869   */\n      add\n        /* \"#utility.yul\":2843:2849   */\n      dup9\n        /* \"#utility.yul\":2799:2870   */\n      tag_124\n      jump\t// in\n    tag_194:\n        /* \"#utility.yul\":2880:2952   */\n      tag_195\n        /* \"#utility.yul\":2948:2950   */\n      0x20\n        /* \"#utility.yul\":2937:2946   */\n      dup4\n        /* \"#utility.yul\":2933:2951   */\n      add\n        /* \"#utility.yul\":2924:2930   */\n      dup8\n        /* \"#utility.yul\":2880:2952   */\n      tag_124\n      jump\t// in\n    tag_195:\n        /* \"#utility.yul\":2962:3034   */\n      tag_196\n        /* \"#utility.yul\":3030:3032   */\n      0x40\n        /* \"#utility.yul\":3019:3028   */\n      dup4\n        /* \"#utility.yul\":3015:3033   */\n      add\n        /* \"#utility.yul\":3006:3012   */\n      dup7\n        /* \"#utility.yul\":2962:3034   */\n      tag_124\n      jump\t// in\n    tag_196:\n        /* \"#utility.yul\":3044:3116   */\n      tag_197\n        /* \"#utility.yul\":3112:3114   */\n      0x60\n        /* \"#utility.yul\":3101:3110   */\n      dup4\n        /* \"#utility.yul\":3097:3115   */\n      add\n        /* \"#utility.yul\":3088:3094   */\n      dup6\n        /* \"#utility.yul\":3044:3116   */\n      tag_124\n      jump\t// in\n    tag_197:\n        /* \"#utility.yul\":3126:3199   */\n      tag_198\n        /* \"#utility.yul\":3194:3197   */\n      0x80\n        /* \"#utility.yul\":3183:3192   */\n      dup4\n        /* \"#utility.yul\":3179:3198   */\n      add\n        /* \"#utility.yul\":3170:3176   */\n      dup5\n        /* \"#utility.yul\":3126:3199   */\n      tag_125\n      jump\t// in\n    tag_198:\n        /* \"#utility.yul\":2542:3206   */\n      swap7\n      swap6\n      pop\n      pop\n      pop\n      pop\n      pop\n      pop\n      jump\t// out\n        /* \"#utility.yul\":3212:3434   */\n    tag_38:\n        /* \"#utility.yul\":3305:3309   */\n      0x00\n        /* \"#utility.yul\":3343:3345   */\n      0x20\n        /* \"#utility.yul\":3332:3341   */\n      dup3\n        /* \"#utility.yul\":3328:3346   */\n      add\n        /* \"#utility.yul\":3320:3346   */\n      swap1\n      pop\n        /* \"#utility.yul\":3356:3427   */\n      tag_200\n        /* \"#utility.yul\":3424:3425   */\n      0x00\n        /* \"#utility.yul\":3413:3422   */\n      dup4\n        /* \"#utility.yul\":3409:3426   */\n      add\n        /* \"#utility.yul\":3400:3406   */\n      dup5\n        /* \"#utility.yul\":3356:3427   */\n      tag_125\n      jump\t// in\n    tag_200:\n        /* \"#utility.yul\":3212:3434   */\n      swap3\n      swap2\n      pop\n      pop\n      jump\t// out\n        /* \"#utility.yul\":3440:3662   */\n    tag_43:\n        /* \"#utility.yul\":3533:3537   */\n      0x00\n        /* \"#utility.yul\":3571:3573   */\n      0x20\n        /* \"#utility.yul\":3560:3569   */\n      dup3\n        /* \"#utility.yul\":3556:3574   */\n      add\n        /* \"#utility.yul\":3548:3574   */\n      swap1\n      pop\n        /* \"#utility.yul\":3584:3655   */\n      tag_202\n        /* \"#utility.yul\":3652:3653   */\n      0x00\n        /* \"#utility.yul\":3641:3650   */\n      dup4\n        /* \"#utility.yul\":3637:3654   */\n      add\n        /* \"#utility.yul\":3628:3634   */\n      dup5\n        /* \"#utility.yul\":3584:3655   */\n      tag_124\n      jump\t// in\n    tag_202:\n        /* \"#utility.yul\":3440:3662   */\n      swap3\n      swap2\n      pop\n      pop\n      jump\t// out\n        /* \"#utility.yul\":3668:3767   */\n    tag_126:\n        /* \"#utility.yul\":3720:3726   */\n      0x00\n        /* \"#utility.yul\":3754:3759   */\n      dup2\n        /* \"#utility.yul\":3748:3760   */\n      mload\n        /* \"#utility.yul\":3738:3760   */\n      swap1\n      pop\n        /* \"#utility.yul\":3668:3767   */\n      swap2\n      swap1\n      pop\n      jump\t// out\n        /* \"#utility.yul\":3773:3942   */\n    tag_127:\n        /* \"#utility.yul\":3857:3868   */\n      0x00\n        /* \"#utility.yul\":3891:3897   */\n      dup3\n        /* \"#utility.yul\":3886:3889   */\n      dup3\n        /* \"#utility.yul\":3879:3898   */\n      mstore\n        /* \"#utility.yul\":3931:3935   */\n      0x20\n        /* \"#utility.yul\":3926:3929   */\n      dup3\n        /* \"#utility.yul\":3922:3936   */\n      add\n        /* \"#utility.yul\":3907:3936   */\n      swap1\n      pop\n        /* \"#utility.yul\":3773:3942   */\n      swap3\n      swap2\n      pop\n      pop\n      jump\t// out\n        /* \"#utility.yul\":3948:4194   */\n    tag_128:\n        /* \"#utility.yul\":4029:4030   */\n      0x00\n        /* \"#utility.yul\":4039:4152   */\n    tag_206:\n        /* \"#utility.yul\":4053:4059   */\n      dup4\n        /* \"#utility.yul\":4050:4051   */\n      dup2\n        /* \"#utility.yul\":4047:4060   */\n      lt\n        /* \"#utility.yul\":4039:4152   */\n      iszero\n      tag_208\n      jumpi\n        /* \"#utility.yul\":4138:4139   */\n      dup1\n        /* \"#utility.yul\":4133:4136   */\n      dup3\n        /* \"#utility.yul\":4129:4140   */\n      add\n        /* \"#utility.yul\":4123:4141   */\n      mload\n        /* \"#utility.yul\":4119:4120   */\n      dup2\n        /* \"#utility.yul\":4114:4117   */\n      dup5\n        /* \"#utility.yul\":4110:4121   */\n      add\n        /* \"#utility.yul\":4103:4142   */\n      mstore\n        /* \"#utility.yul\":4075:4077   */\n      0x20\n        /* \"#utility.yul\":4072:4073   */\n      dup2\n        /* \"#utility.yul\":4068:4078   */\n      add\n        /* \"#utility.yul\":4063:4078   */\n      swap1\n      pop\n        /* \"#utility.yul\":4039:4152   */\n      jump(tag_206)\n    tag_208:\n        /* \"#utility.yul\":4186:4187   */\n      0x00\n        /* \"#utility.yul\":4177:4183   */\n      dup5\n        /* \"#utility.yul\":4172:4175   */\n      dup5\n        /* \"#utility.yul\":4168:4184   */\n      add\n        /* \"#utility.yul\":4161:4188   */\n      mstore\n        /* \"#utility.yul\":4010:4194   */\n      pop\n        /* \"#utility.yul\":3948:4194   */\n      pop\n      pop\n      pop\n      jump\t// out\n        /* \"#utility.yul\":4200:4302   */\n    tag_129:\n        /* \"#utility.yul\":4241:4247   */\n      0x00\n        /* \"#utility.yul\":4292:4294   */\n      0x1f\n        /* \"#utility.yul\":4288:4295   */\n      not\n        /* \"#utility.yul\":4283:4285   */\n      0x1f\n        /* \"#utility.yul\":4276:4281   */\n      dup4\n        /* \"#utility.yul\":4272:4286   */\n      add\n        /* \"#utility.yul\":4268:4296   */\n      and\n        /* \"#utility.yul\":4258:4296   */\n      swap1\n      pop\n        /* \"#utility.yul\":4200:4302   */\n      swap2\n      swap1\n      pop\n      jump\t// out\n        /* \"#utility.yul\":4308:4685   */\n    tag_130:\n        /* \"#utility.yul\":4396:4399   */\n      0x00\n        /* \"#utility.yul\":4424:4463   */\n      tag_211\n        /* \"#utility.yul\":4457:4462   */\n      dup3\n        /* \"#utility.yul\":4424:4463   */\n      tag_126\n      jump\t// in\n    tag_211:\n        /* \"#utility.yul\":4479:4550   */\n      tag_212\n        /* \"#utility.yul\":4543:4549   */\n      dup2\n        /* \"#utility.yul\":4538:4541   */\n      dup6\n        /* \"#utility.yul\":4479:4550   */\n      tag_127\n      jump\t// in\n    tag_212:\n        /* \"#utility.yul\":4472:4550   */\n      swap4\n      pop\n        /* \"#utility.yul\":4559:4624   */\n      tag_213\n        /* \"#utility.yul\":4617:4623   */\n      dup2\n        /* \"#utility.yul\":4612:4615   */\n      dup6\n        /* \"#utility.yul\":4605:4609   */\n      0x20\n        /* \"#utility.yul\":4598:4603   */\n      dup7\n        /* \"#utility.yul\":4594:4610   */\n      add\n        /* \"#utility.yul\":4559:4624   */\n      tag_128\n      jump\t// in\n    tag_213:\n        /* \"#utility.yul\":4649:4678   */\n      tag_214\n        /* \"#utility.yul\":4671:4677   */\n      dup2\n        /* \"#utility.yul\":4649:4678   */\n      tag_129\n      jump\t// in\n    tag_214:\n        /* \"#utility.yul\":4644:4647   */\n      dup5\n        /* \"#utility.yul\":4640:4679   */\n      add\n        /* \"#utility.yul\":4633:4679   */\n      swap2\n      pop\n        /* \"#utility.yul\":4400:4685   */\n      pop\n        /* \"#utility.yul\":4308:4685   */\n      swap3\n      swap2\n      pop\n      pop\n      jump\t// out\n        /* \"#utility.yul\":4691:5434   */\n    tag_49:\n        /* \"#utility.yul\":4910:4914   */\n      0x00\n        /* \"#utility.yul\":4948:4951   */\n      0xa0\n        /* \"#utility.yul\":4937:4946   */\n      dup3\n        /* \"#utility.yul\":4933:4952   */\n      add\n        /* \"#utility.yul\":4925:4952   */\n      swap1\n      pop\n        /* \"#utility.yul\":4998:5007   */\n      dup2\n        /* \"#utility.yul\":4992:4996   */\n      dup2\n        /* \"#utility.yul\":4988:5008   */\n      sub\n        /* \"#utility.yul\":4984:4985   */\n      0x00\n        /* \"#utility.yul\":4973:4982   */\n      dup4\n        /* \"#utility.yul\":4969:4986   */\n      add\n        /* \"#utility.yul\":4962:5009   */\n      mstore\n        /* \"#utility.yul\":5026:5104   */\n      tag_216\n        /* \"#utility.yul\":5099:5103   */\n      dup2\n        /* \"#utility.yul\":5090:5096   */\n      dup9\n        /* \"#utility.yul\":5026:5104   */\n      tag_130\n      jump\t// in\n    tag_216:\n        /* \"#utility.yul\":5018:5104   */\n      swap1\n      pop\n        /* \"#utility.yul\":5114:5186   */\n      tag_217\n        /* \"#utility.yul\":5182:5184   */\n      0x20\n        /* \"#utility.yul\":5171:5180   */\n      dup4\n        /* \"#utility.yul\":5167:5185   */\n      add\n        /* \"#utility.yul\":5158:5164   */\n      dup8\n        /* \"#utility.yul\":5114:5186   */\n      tag_124\n      jump\t// in\n    tag_217:\n        /* \"#utility.yul\":5196:5268   */\n      tag_218\n        /* \"#utility.yul\":5264:5266   */\n      0x40\n        /* \"#utility.yul\":5253:5262   */\n      dup4\n        /* \"#utility.yul\":5249:5267   */\n      add\n        /* \"#utility.yul\":5240:5246   */\n      dup7\n        /* \"#utility.yul\":5196:5268   */\n      tag_125\n      jump\t// in\n    tag_218:\n        /* \"#utility.yul\":5278:5344   */\n      tag_219\n        /* \"#utility.yul\":5340:5342   */\n      0x60\n        /* \"#utility.yul\":5329:5338   */\n      dup4\n        /* \"#utility.yul\":5325:5343   */\n      add\n        /* \"#utility.yul\":5316:5322   */\n      dup6\n        /* \"#utility.yul\":5278:5344   */\n      tag_123\n      jump\t// in\n    tag_219:\n        /* \"#utility.yul\":5354:5427   */\n      tag_220\n        /* \"#utility.yul\":5422:5425   */\n      0x80\n        /* \"#utility.yul\":5411:5420   */\n      dup4\n        /* \"#utility.yul\":5407:5426   */\n      add\n        /* \"#utility.yul\":5398:5404   */\n      dup5\n        /* \"#utility.yul\":5354:5427   */\n      tag_124\n      jump\t// in\n    tag_220:\n        /* \"#utility.yul\":4691:5434   */\n      swap7\n      swap6\n      pop\n      pop\n      pop\n      pop\n      pop\n      pop\n      jump\t// out\n        /* \"#utility.yul\":5440:5557   */\n    tag_131:\n        /* \"#utility.yul\":5549:5550   */\n      0x00\n        /* \"#utility.yul\":5546:5547   */\n      dup1\n        /* \"#utility.yul\":5539:5551   */\n      revert\n        /* \"#utility.yul\":5563:5680   */\n    tag_132:\n        /* \"#utility.yul\":5672:5673   */\n      0x00\n        /* \"#utility.yul\":5669:5670   */\n      dup1\n        /* \"#utility.yul\":5662:5674   */\n      revert\n        /* \"#utility.yul\":5686:5866   */\n    tag_133:\n        /* \"#utility.yul\":5734:5811   */\n      0x4e487b7100000000000000000000000000000000000000000000000000000000\n        /* \"#utility.yul\":5731:5732   */\n      0x00\n        /* \"#utility.yul\":5724:5812   */\n      mstore\n        /* \"#utility.yul\":5831:5835   */\n      0x41\n        /* \"#utility.yul\":5828:5829   */\n      0x04\n        /* \"#utility.yul\":5821:5836   */\n      mstore\n        /* \"#utility.yul\":5855:5859   */\n      0x24\n        /* \"#utility.yul\":5852:5853   */\n      0x00\n        /* \"#utility.yul\":5845:5860   */\n      revert\n        /* \"#utility.yul\":5872:6153   */\n    tag_134:\n        /* \"#utility.yul\":5955:5982   */\n      tag_225\n        /* \"#utility.yul\":5977:5981   */\n      dup3\n        /* \"#utility.yul\":5955:5982   */\n      tag_129\n      jump\t// in\n    tag_225:\n        /* \"#utility.yul\":5947:5953   */\n      dup2\n        /* \"#utility.yul\":5943:5983   */\n      add\n        /* \"#utility.yul\":6085:6091   */\n      dup2\n        /* \"#utility.yul\":6073:6083   */\n      dup2\n        /* \"#utility.yul\":6070:6092   */\n      lt\n        /* \"#utility.yul\":6049:6067   */\n      0xffffffffffffffff\n        /* \"#utility.yul\":6037:6047   */\n      dup3\n        /* \"#utility.yul\":6034:6068   */\n      gt\n        /* \"#utility.yul\":6031:6093   */\n      or\n        /* \"#utility.yul\":6028:6116   */\n      iszero\n      tag_226\n      jumpi\n        /* \"#utility.yul\":6096:6114   */\n      tag_227\n      tag_133\n      jump\t// in\n    tag_227:\n        /* \"#utility.yul\":6028:6116   */\n    tag_226:\n        /* \"#utility.yul\":6136:6146   */\n      dup1\n        /* \"#utility.yul\":6132:6134   */\n      0x40\n        /* \"#utility.yul\":6125:6147   */\n      mstore\n        /* \"#utility.yul\":5915:6153   */\n      pop\n        /* \"#utility.yul\":5872:6153   */\n      pop\n      pop\n      jump\t// out\n        /* \"#utility.yul\":6159:6288   */\n    tag_135:\n        /* \"#utility.yul\":6193:6199   */\n      0x00\n        /* \"#utility.yul\":6220:6240   */\n      tag_229\n      tag_112\n      jump\t// in\n    tag_229:\n        /* \"#utility.yul\":6210:6240   */\n      swap1\n      pop\n        /* \"#utility.yul\":6249:6282   */\n      tag_230\n        /* \"#utility.yul\":6277:6281   */\n      dup3\n        /* \"#utility.yul\":6269:6275   */\n      dup3\n        /* \"#utility.yul\":6249:6282   */\n      tag_134\n      jump\t// in\n    tag_230:\n        /* \"#utility.yul\":6159:6288   */\n      swap2\n      swap1\n      pop\n      jump\t// out\n        /* \"#utility.yul\":6294:6602   */\n    tag_136:\n        /* \"#utility.yul\":6356:6360   */\n      0x00\n        /* \"#utility.yul\":6446:6464   */\n      0xffffffffffffffff\n        /* \"#utility.yul\":6438:6444   */\n      dup3\n        /* \"#utility.yul\":6435:6465   */\n      gt\n        /* \"#utility.yul\":6432:6488   */\n      iszero\n      tag_232\n      jumpi\n        /* \"#utility.yul\":6468:6486   */\n      tag_233\n      tag_133\n      jump\t// in\n    tag_233:\n        /* \"#utility.yul\":6432:6488   */\n    tag_232:\n        /* \"#utility.yul\":6506:6535   */\n      tag_234\n        /* \"#utility.yul\":6528:6534   */\n      dup3\n        /* \"#utility.yul\":6506:6535   */\n      tag_129\n      jump\t// in\n    tag_234:\n        /* \"#utility.yul\":6498:6535   */\n      swap1\n      pop\n        /* \"#utility.yul\":6590:6594   */\n      0x20\n        /* \"#utility.yul\":6584:6588   */\n      dup2\n        /* \"#utility.yul\":6580:6595   */\n      add\n        /* \"#utility.yul\":6572:6595   */\n      swap1\n      pop\n        /* \"#utility.yul\":6294:6602   */\n      swap2\n      swap1\n      pop\n      jump\t// out\n        /* \"#utility.yul\":6608:6754   */\n    tag_137:\n        /* \"#utility.yul\":6705:6711   */\n      dup3\n        /* \"#utility.yul\":6700:6703   */\n      dup2\n        /* \"#utility.yul\":6695:6698   */\n      dup4\n        /* \"#utility.yul\":6682:6712   */\n      calldatacopy\n        /* \"#utility.yul\":6746:6747   */\n      0x00\n        /* \"#utility.yul\":6737:6743   */\n      dup4\n        /* \"#utility.yul\":6732:6735   */\n      dup4\n        /* \"#utility.yul\":6728:6744   */\n      add\n        /* \"#utility.yul\":6721:6748   */\n      mstore\n        /* \"#utility.yul\":6608:6754   */\n      pop\n      pop\n      pop\n      jump\t// out\n        /* \"#utility.yul\":6760:7185   */\n    tag_138:\n        /* \"#utility.yul\":6838:6843   */\n      0x00\n        /* \"#utility.yul\":6863:6929   */\n      tag_237\n        /* \"#utility.yul\":6879:6928   */\n      tag_238\n        /* \"#utility.yul\":6921:6927   */\n      dup5\n        /* \"#utility.yul\":6879:6928   */\n      tag_136\n      jump\t// in\n    tag_238:\n        /* \"#utility.yul\":6863:6929   */\n      tag_135\n      jump\t// in\n    tag_237:\n        /* \"#utility.yul\":6854:6929   */\n      swap1\n      pop\n        /* \"#utility.yul\":6952:6958   */\n      dup3\n        /* \"#utility.yul\":6945:6950   */\n      dup2\n        /* \"#utility.yul\":6938:6959   */\n      mstore\n        /* \"#utility.yul\":6990:6994   */\n      0x20\n        /* \"#utility.yul\":6983:6988   */\n      dup2\n        /* \"#utility.yul\":6979:6995   */\n      add\n        /* \"#utility.yul\":7028:7031   */\n      dup5\n        /* \"#utility.yul\":7019:7025   */\n      dup5\n        /* \"#utility.yul\":7014:7017   */\n      dup5\n        /* \"#utility.yul\":7010:7026   */\n      add\n        /* \"#utility.yul\":7007:7032   */\n      gt\n        /* \"#utility.yul\":7004:7116   */\n      iszero\n      tag_239\n      jumpi\n        /* \"#utility.yul\":7035:7114   */\n      tag_240\n      tag_132\n      jump\t// in\n    tag_240:\n        /* \"#utility.yul\":7004:7116   */\n    tag_239:\n        /* \"#utility.yul\":7125:7179   */\n      tag_241\n        /* \"#utility.yul\":7172:7178   */\n      dup5\n        /* \"#utility.yul\":7167:7170   */\n      dup3\n        /* \"#utility.yul\":7162:7165   */\n      dup6\n        /* \"#utility.yul\":7125:7179   */\n      tag_137\n      jump\t// in\n    tag_241:\n        /* \"#utility.yul\":6844:7185   */\n      pop\n        /* \"#utility.yul\":6760:7185   */\n      swap4\n      swap3\n      pop\n      pop\n      pop\n      jump\t// out\n        /* \"#utility.yul\":7205:7545   */\n    tag_139:\n        /* \"#utility.yul\":7261:7266   */\n      0x00\n        /* \"#utility.yul\":7310:7313   */\n      dup3\n        /* \"#utility.yul\":7303:7307   */\n      0x1f\n        /* \"#utility.yul\":7295:7301   */\n      dup4\n        /* \"#utility.yul\":7291:7308   */\n      add\n        /* \"#utility.yul\":7287:7314   */\n      slt\n        /* \"#utility.yul\":7277:7399   */\n      tag_243\n      jumpi\n        /* \"#utility.yul\":7318:7397   */\n      tag_244\n      tag_131\n      jump\t// in\n    tag_244:\n        /* \"#utility.yul\":7277:7399   */\n    tag_243:\n        /* \"#utility.yul\":7435:7441   */\n      dup2\n        /* \"#utility.yul\":7422:7442   */\n      calldataload\n        /* \"#utility.yul\":7460:7539   */\n      tag_245\n        /* \"#utility.yul\":7535:7538   */\n      dup5\n        /* \"#utility.yul\":7527:7533   */\n      dup3\n        /* \"#utility.yul\":7520:7524   */\n      0x20\n        /* \"#utility.yul\":7512:7518   */\n      dup7\n        /* \"#utility.yul\":7508:7525   */\n      add\n        /* \"#utility.yul\":7460:7539   */\n      tag_138\n      jump\t// in\n    tag_245:\n        /* \"#utility.yul\":7451:7539   */\n      swap2\n      pop\n        /* \"#utility.yul\":7267:7545   */\n      pop\n        /* \"#utility.yul\":7205:7545   */\n      swap3\n      swap2\n      pop\n      pop\n      jump\t// out\n        /* \"#utility.yul\":7551:8350   */\n    tag_57:\n        /* \"#utility.yul\":7638:7644   */\n      0x00\n        /* \"#utility.yul\":7646:7652   */\n      dup1\n        /* \"#utility.yul\":7654:7660   */\n      0x00\n        /* \"#utility.yul\":7703:7705   */\n      0x60\n        /* \"#utility.yul\":7691:7700   */\n      dup5\n        /* \"#utility.yul\":7682:7689   */\n      dup7\n        /* \"#utility.yul\":7678:7701   */\n      sub\n        /* \"#utility.yul\":7674:7706   */\n      slt\n        /* \"#utility.yul\":7671:7790   */\n      iszero\n      tag_247\n      jumpi\n        /* \"#utility.yul\":7709:7788   */\n      tag_248\n      tag_113\n      jump\t// in\n    tag_248:\n        /* \"#utility.yul\":7671:7790   */\n    tag_247:\n        /* \"#utility.yul\":7857:7858   */\n      0x00\n        /* \"#utility.yul\":7846:7855   */\n      dup5\n        /* \"#utility.yul\":7842:7859   */\n      add\n        /* \"#utility.yul\":7829:7860   */\n      calldataload\n        /* \"#utility.yul\":7887:7905   */\n      0xffffffffffffffff\n        /* \"#utility.yul\":7879:7885   */\n      dup2\n        /* \"#utility.yul\":7876:7906   */\n      gt\n        /* \"#utility.yul\":7873:7990   */\n      iszero\n      tag_249\n      jumpi\n        /* \"#utility.yul\":7909:7988   */\n      tag_250\n      tag_114\n      jump\t// in\n    tag_250:\n        /* \"#utility.yul\":7873:7990   */\n    tag_249:\n        /* \"#utility.yul\":8014:8077   */\n      tag_251\n        /* \"#utility.yul\":8069:8076   */\n      dup7\n        /* \"#utility.yul\":8060:8066   */\n      dup3\n        /* \"#utility.yul\":8049:8058   */\n      dup8\n        /* \"#utility.yul\":8045:8067   */\n      add\n        /* \"#utility.yul\":8014:8077   */\n      tag_139\n      jump\t// in\n    tag_251:\n        /* \"#utility.yul\":8004:8077   */\n      swap4\n      pop\n        /* \"#utility.yul\":7800:8087   */\n      pop\n        /* \"#utility.yul\":8126:8128   */\n      0x20\n        /* \"#utility.yul\":8152:8205   */\n      tag_252\n        /* \"#utility.yul\":8197:8204   */\n      dup7\n        /* \"#utility.yul\":8188:8194   */\n      dup3\n        /* \"#utility.yul\":8177:8186   */\n      dup8\n        /* \"#utility.yul\":8173:8195   */\n      add\n        /* \"#utility.yul\":8152:8205   */\n      tag_117\n      jump\t// in\n    tag_252:\n        /* \"#utility.yul\":8142:8205   */\n      swap3\n      pop\n        /* \"#utility.yul\":8097:8215   */\n      pop\n        /* \"#utility.yul\":8254:8256   */\n      0x40\n        /* \"#utility.yul\":8280:8333   */\n      tag_253\n        /* \"#utility.yul\":8325:8332   */\n      dup7\n        /* \"#utility.yul\":8316:8322   */\n      dup3\n        /* \"#utility.yul\":8305:8314   */\n      dup8\n        /* \"#utility.yul\":8301:8323   */\n      add\n        /* \"#utility.yul\":8280:8333   */\n      tag_121\n      jump\t// in\n    tag_253:\n        /* \"#utility.yul\":8270:8333   */\n      swap2\n      pop\n        /* \"#utility.yul\":8225:8343   */\n      pop\n        /* \"#utility.yul\":7551:8350   */\n      swap3\n      pop\n      swap3\n      pop\n      swap3\n      jump\t// out\n        /* \"#utility.yul\":8356:8536   */\n    tag_140:\n        /* \"#utility.yul\":8404:8481   */\n      0x4e487b7100000000000000000000000000000000000000000000000000000000\n        /* \"#utility.yul\":8401:8402   */\n      0x00\n        /* \"#utility.yul\":8394:8482   */\n      mstore\n        /* \"#utility.yul\":8501:8505   */\n      0x12\n        /* \"#utility.yul\":8498:8499   */\n      0x04\n        /* \"#utility.yul\":8491:8506   */\n      mstore\n        /* \"#utility.yul\":8525:8529   */\n      0x24\n        /* \"#utility.yul\":8522:8523   */\n      0x00\n        /* \"#utility.yul\":8515:8530   */\n      revert\n        /* \"#utility.yul\":8542:8722   */\n    tag_141:\n        /* \"#utility.yul\":8590:8667   */\n      0x4e487b7100000000000000000000000000000000000000000000000000000000\n        /* \"#utility.yul\":8587:8588   */\n      0x00\n        /* \"#utility.yul\":8580:8668   */\n      mstore\n        /* \"#utility.yul\":8687:8691   */\n      0x11\n        /* \"#utility.yul\":8684:8685   */\n      0x04\n        /* \"#utility.yul\":8677:8692   */\n      mstore\n        /* \"#utility.yul\":8711:8715   */\n      0x24\n        /* \"#utility.yul\":8708:8709   */\n      0x00\n        /* \"#utility.yul\":8701:8716   */\n      revert\n        /* \"#utility.yul\":8728:8913   */\n    tag_82:\n        /* \"#utility.yul\":8768:8769   */\n      0x00\n        /* \"#utility.yul\":8785:8805   */\n      tag_257\n        /* \"#utility.yul\":8803:8804   */\n      dup3\n        /* \"#utility.yul\":8785:8805   */\n      tag_115\n      jump\t// in\n    tag_257:\n        /* \"#utility.yul\":8780:8805   */\n      swap2\n      pop\n        /* \"#utility.yul\":8819:8839   */\n      tag_258\n        /* \"#utility.yul\":8837:8838   */\n      dup4\n        /* \"#utility.yul\":8819:8839   */\n      tag_115\n      jump\t// in\n    tag_258:\n        /* \"#utility.yul\":8814:8839   */\n      swap3\n      pop\n        /* \"#utility.yul\":8858:8859   */\n      dup3\n        /* \"#utility.yul\":8848:8883   */\n      tag_259\n      jumpi\n        /* \"#utility.yul\":8863:8881   */\n      tag_260\n      tag_140\n      jump\t// in\n    tag_260:\n        /* \"#utility.yul\":8848:8883   */\n    tag_259:\n        /* \"#utility.yul\":8905:8906   */\n      dup3\n        /* \"#utility.yul\":8902:8903   */\n      dup3\n        /* \"#utility.yul\":8898:8907   */\n      div\n        /* \"#utility.yul\":8893:8907   */\n      swap1\n      pop\n        /* \"#utility.yul\":8728:8913   */\n      swap3\n      swap2\n      pop\n      pop\n      jump\t// out\n        /* \"#utility.yul\":8919:9099   */\n    tag_142:\n        /* \"#utility.yul\":8967:9044   */\n      0x4e487b7100000000000000000000000000000000000000000000000000000000\n        /* \"#utility.yul\":8964:8965   */\n      0x00\n        /* \"#utility.yul\":8957:9045   */\n      mstore\n        /* \"#utility.yul\":9064:9068   */\n      0x22\n        /* \"#utility.yul\":9061:9062   */\n      0x04\n        /* \"#utility.yul\":9054:9069   */\n      mstore\n        /* \"#utility.yul\":9088:9092   */\n      0x24\n        /* \"#utility.yul\":9085:9086   */\n      0x00\n        /* \"#utility.yul\":9078:9093   */\n      revert\n        /* \"#utility.yul\":9105:9425   */\n    tag_89:\n        /* \"#utility.yul\":9149:9155   */\n      0x00\n        /* \"#utility.yul\":9186:9187   */\n      0x02\n        /* \"#utility.yul\":9180:9184   */\n      dup3\n        /* \"#utility.yul\":9176:9188   */\n      div\n        /* \"#utility.yul\":9166:9188   */\n      swap1\n      pop\n        /* \"#utility.yul\":9233:9234   */\n      0x01\n        /* \"#utility.yul\":9227:9231   */\n      dup3\n        /* \"#utility.yul\":9223:9235   */\n      and\n        /* \"#utility.yul\":9254:9272   */\n      dup1\n        /* \"#utility.yul\":9244:9325   */\n      tag_263\n      jumpi\n        /* \"#utility.yul\":9310:9314   */\n      0x7f\n        /* \"#utility.yul\":9302:9308   */\n      dup3\n        /* \"#utility.yul\":9298:9315   */\n      and\n        /* \"#utility.yul\":9288:9315   */\n      swap2\n      pop\n        /* \"#utility.yul\":9244:9325   */\n    tag_263:\n        /* \"#utility.yul\":9372:9374   */\n      0x20\n        /* \"#utility.yul\":9364:9370   */\n      dup3\n        /* \"#utility.yul\":9361:9375   */\n      lt\n        /* \"#utility.yul\":9341:9359   */\n      dup2\n        /* \"#utility.yul\":9338:9376   */\n      sub\n        /* \"#utility.yul\":9335:9419   */\n      tag_264\n      jumpi\n        /* \"#utility.yul\":9391:9409   */\n      tag_265\n      tag_142\n      jump\t// in\n    tag_265:\n        /* \"#utility.yul\":9335:9419   */\n    tag_264:\n        /* \"#utility.yul\":9156:9425   */\n      pop\n        /* \"#utility.yul\":9105:9425   */\n      swap2\n      swap1\n      pop\n      jump\t// out\n        /* \"#utility.yul\":9431:9664   */\n    tag_98:\n        /* \"#utility.yul\":9470:9473   */\n      0x00\n        /* \"#utility.yul\":9493:9517   */\n      tag_267\n        /* \"#utility.yul\":9511:9516   */\n      dup3\n        /* \"#utility.yul\":9493:9517   */\n      tag_115\n      jump\t// in\n    tag_267:\n        /* \"#utility.yul\":9484:9517   */\n      swap2\n      pop\n        /* \"#utility.yul\":9539:9605   */\n      0xffffffffffffffffffffffffffffffffffffffffffffffffffffffffffffffff\n        /* \"#utility.yul\":9532:9537   */\n      dup3\n        /* \"#utility.yul\":9529:9606   */\n      sub\n        /* \"#utility.yul\":9526:9629   */\n      tag_268\n      jumpi\n        /* \"#utility.yul\":9609:9627   */\n      tag_269\n      tag_141\n      jump\t// in\n    tag_269:\n        /* \"#utility.yul\":9526:9629   */\n    tag_268:\n        /* \"#utility.yul\":9656:9657   */\n      0x01\n        /* \"#utility.yul\":9649:9654   */\n      dup3\n        /* \"#utility.yul\":9645:9658   */\n      add\n        /* \"#utility.yul\":9638:9658   */\n      swap1\n      pop\n        /* \"#utility.yul\":9431:9664   */\n      swap2\n      swap1\n      pop\n      jump\t// out\n        /* \"#utility.yul\":9670:9811   */\n    tag_143:\n        /* \"#utility.yul\":9719:9723   */\n      0x00\n        /* \"#utility.yul\":9742:9745   */\n      dup2\n        /* \"#utility.yul\":9734:9745   */\n      swap1\n      pop\n        /* \"#utility.yul\":9765:9768   */\n      dup2\n        /* \"#utility.yul\":9762:9763   */\n      0x00\n        /* \"#utility.yul\":9755:9769   */\n      mstore\n        /* \"#utility.yul\":9799:9803   */\n      0x20\n        /* \"#utility.yul\":9796:9797   */\n      0x00\n        /* \"#utility.yul\":9786:9804   */\n      keccak256\n        /* \"#utility.yul\":9778:9804   */\n      swap1\n      pop\n        /* \"#utility.yul\":9670:9811   */\n      swap2\n      swap1\n      pop\n      jump\t// out\n        /* \"#utility.yul\":9817:9910   */\n    tag_144:\n        /* \"#utility.yul\":9854:9860   */\n      0x00\n        /* \"#utility.yul\":9901:9903   */\n      0x20\n        /* \"#utility.yul\":9896:9898   */\n      0x1f\n        /* \"#utility.yul\":9889:9894   */\n      dup4\n        /* \"#utility.yul\":9885:9899   */\n      add\n        /* \"#utility.yul\":9881:9904   */\n      div\n        /* \"#utility.yul\":9871:9904   */\n      swap1\n      pop\n        /* \"#utility.yul\":9817:9910   */\n      swap2\n      swap1\n      pop\n      jump\t// out\n        /* \"#utility.yul\":9916:10023   */\n    tag_145:\n        /* \"#utility.yul\":9960:9968   */\n      0x00\n        /* \"#utility.yul\":10010:10015   */\n      dup3\n        /* \"#utility.yul\":10004:10008   */\n      dup3\n        /* \"#utility.yul\":10000:10016   */\n      shl\n        /* \"#utility.yul\":9979:10016   */\n      swap1\n      pop\n        /* \"#utility.yul\":9916:10023   */\n      swap3\n      swap2\n      pop\n      pop\n      jump\t// out\n        /* \"#utility.yul\":10029:10422   */\n    tag_146:\n        /* \"#utility.yul\":10098:10104   */\n      0x00\n        /* \"#utility.yul\":10148:10149   */\n      0x08\n        /* \"#utility.yul\":10136:10146   */\n      dup4\n        /* \"#utility.yul\":10132:10150   */\n      mul\n        /* \"#utility.yul\":10171:10268   */\n      tag_274\n        /* \"#utility.yul\":10201:10267   */\n      0xffffffffffffffffffffffffffffffffffffffffffffffffffffffffffffffff\n        /* \"#utility.yul\":10190:10199   */\n      dup3\n        /* \"#utility.yul\":10171:10268   */\n      tag_145\n      jump\t// in\n    tag_274:\n        /* \"#utility.yul\":10289:10328   */\n      tag_275\n        /* \"#utility.yul\":10319:10327   */\n      dup7\n        /* \"#utility.yul\":10308:10317   */\n      dup4\n        /* \"#utility.yul\":10289:10328   */\n      tag_145\n      jump\t// in\n    tag_275:\n        /* \"#utility.yul\":10277:10328   */\n      swap6\n      pop\n        /* \"#utility.yul\":10361:10365   */\n      dup1\n        /* \"#utility.yul\":10357:10366   */\n      not\n        /* \"#utility.yul\":10350:10355   */\n      dup5\n        /* \"#utility.yul\":10346:10367   */\n      and\n        /* \"#utility.yul\":10337:10367   */\n      swap4\n      pop\n        /* \"#utility.yul\":10410:10414   */\n      dup1\n        /* \"#utility.yul\":10400:10408   */\n      dup7\n        /* \"#utility.yul\":10396:10415   */\n      and\n        /* \"#utility.yul\":10389:10394   */\n      dup5\n        /* \"#utility.yul\":10386:10416   */\n      or\n        /* \"#utility.yul\":10376:10416   */\n      swap3\n      pop\n        /* \"#utility.yul\":10105:10422   */\n      pop\n      pop\n        /* \"#utility.yul\":10029:10422   */\n      swap4\n      swap3\n      pop\n      pop\n      pop\n      jump\t// out\n        /* \"#utility.yul\":10428:10488   */\n    tag_147:\n        /* \"#utility.yul\":10456:10459   */\n      0x00\n        /* \"#utility.yul\":10477:10482   */\n      dup2\n        /* \"#utility.yul\":10470:10482   */\n      swap1\n      pop\n        /* \"#utility.yul\":10428:10488   */\n      swap2\n      swap1\n      pop\n      jump\t// out\n        /* \"#utility.yul\":10494:10636   */\n    tag_148:\n        /* \"#utility.yul\":10544:10553   */\n      0x00\n        /* \"#utility.yul\":10577:10630   */\n      tag_278\n        /* \"#utility.yul\":10595:10629   */\n      tag_279\n        /* \"#utility.yul\":10604:10628   */\n      tag_280\n        /* \"#utility.yul\":10622:10627   */\n      dup5\n        /* \"#utility.yul\":10604:10628   */\n      tag_115\n      jump\t// in\n    tag_280:\n        /* \"#utility.yul\":10595:10629   */\n      tag_147\n      jump\t// in\n    tag_279:\n        /* \"#utility.yul\":10577:10630   */\n      tag_115\n      jump\t// in\n    tag_278:\n        /* \"#utility.yul\":10564:10630   */\n      swap1\n      pop\n        /* \"#utility.yul\":10494:10636   */\n      swap2\n      swap1\n      pop\n      jump\t// out\n        /* \"#utility.yul\":10642:10717   */\n    tag_149:\n        /* \"#utility.yul\":10685:10688   */\n      0x00\n        /* \"#utility.yul\":10706:10711   */\n      dup2\n        /* \"#utility.yul\":10699:10711   */\n      swap1\n      pop\n        /* \"#utility.yul\":10642:10717   */\n      swap2\n      swap1\n      pop\n      jump\t// out\n        /* \"#utility.yul\":10723:10992   */\n    tag_150:\n        /* \"#utility.yul\":10833:10872   */\n      tag_283\n        /* \"#utility.yul\":10864:10871   */\n      dup4\n        /* \"#utility.yul\":10833:10872   */\n      tag_148\n      jump\t// in\n    tag_283:\n        /* \"#utility.yul\":10894:10985   */\n      tag_284\n        /* \"#utility.yul\":10943:10984   */\n      tag_285\n        /* \"#utility.yul\":10967:10983   */\n      dup3\n        /* \"#utility.yul\":10943:10984   */\n      tag_149\n      jump\t// in\n    tag_285:\n        /* \"#utility.yul\":10935:10941   */\n      dup5\n        /* \"#utility.yul\":10928:10932   */\n      dup5\n        /* \"#utility.yul\":10922:10933   */\n      sload\n        /* \"#utility.yul\":10894:10985   */\n      tag_146\n      jump\t// in\n    tag_284:\n        /* \"#utility.yul\":10888:10892   */\n      dup3\n        /* \"#utility.yul\":10881:10986   */\n      sstore\n        /* \"#utility.yul\":10799:10992   */\n      pop\n        /* \"#utility.yul\":10723:10992   */\n      pop\n      pop\n      pop\n      jump\t// out\n        /* \"#utility.yul\":10998:11071   */\n    tag_151:\n        /* \"#utility.yul\":11043:11046   */\n      0x00\n        /* \"#utility.yul\":10998:11071   */\n      swap1\n      jump\t// out\n        /* \"#utility.yul\":11077:11266   */\n    tag_152:\n        /* \"#utility.yul\":11154:11186   */\n      tag_288\n      tag_151\n      jump\t// in\n    tag_288:\n        /* \"#utility.yul\":11195:11260   */\n      tag_289\n        /* \"#utility.yul\":11253:11259   */\n      dup2\n        /* \"#utility.yul\":11245:11251   */\n      dup5\n        /* \"#utility.yul\":11239:11243   */\n      dup5\n        /* \"#utility.yul\":11195:11260   */\n      tag_150\n      jump\t// in\n    tag_289:\n        /* \"#utility.yul\":11130:11266   */\n      pop\n        /* \"#utility.yul\":11077:11266   */\n      pop\n      pop\n      jump\t// out\n        /* \"#utility.yul\":11272:11458   */\n    tag_153:\n        /* \"#utility.yul\":11332:11452   */\n    tag_291:\n        /* \"#utility.yul\":11349:11352   */\n      dup2\n        /* \"#utility.yul\":11342:11347   */\n      dup2\n        /* \"#utility.yul\":11339:11353   */\n      lt\n        /* \"#utility.yul\":11332:11452   */\n      iszero\n      tag_293\n      jumpi\n        /* \"#utility.yul\":11403:11442   */\n      tag_294\n        /* \"#utility.yul\":11440:11441   */\n      0x00\n        /* \"#utility.yul\":11433:11438   */\n      dup3\n        /* \"#utility.yul\":11403:11442   */\n      tag_152\n      jump\t// in\n    tag_294:\n        /* \"#utility.yul\":11376:11377   */\n      0x01\n        /* \"#utility.yul\":11369:11374   */\n      dup2\n        /* \"#utility.yul\":11365:11378   */\n      add\n        /* \"#utility.yul\":11356:11378   */\n      swap1\n      pop\n        /* \"#utility.yul\":11332:11452   */\n      jump(tag_291)\n    tag_293:\n        /* \"#utility.yul\":11272:11458   */\n      pop\n      pop\n      jump\t// out\n        /* \"#utility.yul\":11464:12007   */\n    tag_154:\n        /* \"#utility.yul\":11565:11567   */\n      0x1f\n        /* \"#utility.yul\":11560:11563   */\n      dup3\n        /* \"#utility.yul\":11557:11568   */\n      gt\n        /* \"#utility.yul\":11554:12000   */\n      iszero\n      tag_296\n      jumpi\n        /* \"#utility.yul\":11599:11637   */\n      tag_297\n        /* \"#utility.yul\":11631:11636   */\n      dup2\n        /* \"#utility.yul\":11599:11637   */\n      tag_143\n      jump\t// in\n    tag_297:\n        /* \"#utility.yul\":11683:11712   */\n      tag_298\n        /* \"#utility.yul\":11701:11711   */\n      dup5\n        /* \"#utility.yul\":11683:11712   */\n      tag_144\n      jump\t// in\n    tag_298:\n        /* \"#utility.yul\":11673:11681   */\n      dup2\n        /* \"#utility.yul\":11669:11713   */\n      add\n        /* \"#utility.yul\":11866:11868   */\n      0x20\n        /* \"#utility.yul\":11854:11864   */\n      dup6\n        /* \"#utility.yul\":11851:11869   */\n      lt\n        /* \"#utility.yul\":11848:11897   */\n      iszero\n      tag_299\n      jumpi\n        /* \"#utility.yul\":11887:11895   */\n      dup2\n        /* \"#utility.yul\":11872:11895   */\n      swap1\n      pop\n        /* \"#utility.yul\":11848:11897   */\n    tag_299:\n        /* \"#utility.yul\":11910:11990   */\n      tag_300\n        /* \"#utility.yul\":11966:11988   */\n      tag_301\n        /* \"#utility.yul\":11984:11987   */\n      dup6\n        /* \"#utility.yul\":11966:11988   */\n      tag_144\n      jump\t// in\n    tag_301:\n        /* \"#utility.yul\":11956:11964   */\n      dup4\n        /* \"#utility.yul\":11952:11989   */\n      add\n        /* \"#utility.yul\":11939:11950   */\n      dup3\n        /* \"#utility.yul\":11910:11990   */\n      tag_153\n      jump\t// in\n    tag_300:\n        /* \"#utility.yul\":11569:12000   */\n      pop\n      pop\n        /* \"#utility.yul\":11554:12000   */\n    tag_296:\n        /* \"#utility.yul\":11464:12007   */\n      pop\n      pop\n      pop\n      jump\t// out\n        /* \"#utility.yul\":12013:12130   */\n    tag_155:\n        /* \"#utility.yul\":12067:12075   */\n      0x00\n        /* \"#utility.yul\":12117:12122   */\n      dup3\n        /* \"#utility.yul\":12111:12115   */\n      dup3\n        /* \"#utility.yul\":12107:12123   */\n      shr\n        /* \"#utility.yul\":12086:12123   */\n      swap1\n      pop\n        /* \"#utility.yul\":12013:12130   */\n      swap3\n      swap2\n      pop\n      pop\n      jump\t// out\n        /* \"#utility.yul\":12136:12305   */\n    tag_156:\n        /* \"#utility.yul\":12180:12186   */\n      0x00\n        /* \"#utility.yul\":12213:12264   */\n      tag_304\n        /* \"#utility.yul\":12261:12262   */\n      0x00\n        /* \"#utility.yul\":12257:12263   */\n      not\n        /* \"#utility.yul\":12249:12254   */\n      dup5\n        /* \"#utility.yul\":12246:12247   */\n      0x08\n        /* \"#utility.yul\":12242:12255   */\n      mul\n        /* \"#utility.yul\":12213:12264   */\n      tag_155\n      jump\t// in\n    tag_304:\n        /* \"#utility.yul\":12209:12265   */\n      not\n        /* \"#utility.yul\":12294:12298   */\n      dup1\n        /* \"#utility.yul\":12288:12292   */\n      dup4\n        /* \"#utility.yul\":12284:12299   */\n      and\n        /* \"#utility.yul\":12274:12299   */\n      swap2\n      pop\n        /* \"#utility.yul\":12187:12305   */\n      pop\n        /* \"#utility.yul\":12136:12305   */\n      swap3\n      swap2\n      pop\n      pop\n      jump\t// out\n        /* \"#utility.yul\":12310:12605   */\n    tag_157:\n        /* \"#utility.yul\":12386:12390   */\n      0x00\n        /* \"#utility.yul\":12532:12561   */\n      tag_306\n        /* \"#utility.yul\":12557:12560   */\n      dup4\n        /* \"#utility.yul\":12551:12555   */\n      dup4\n        /* \"#utility.yul\":12532:12561   */\n      tag_156\n      jump\t// in\n    tag_306:\n        /* \"#utility.yul\":12524:12561   */\n      swap2\n      pop\n        /* \"#utility.yul\":12594:12597   */\n      dup3\n        /* \"#utility.yul\":12591:12592   */\n      0x02\n        /* \"#utility.yul\":12587:12598   */\n      mul\n        /* \"#utility.yul\":12581:12585   */\n      dup3\n        /* \"#utility.yul\":12578:12599   */\n      or\n        /* \"#utility.yul\":12570:12599   */\n      swap1\n      pop\n        /* \"#utility.yul\":12310:12605   */\n      swap3\n      swap2\n      pop\n      pop\n      jump\t// out\n        /* \"#utility.yul\":12610:14005   */\n    tag_100:\n        /* \"#utility.yul\":12727:12764   */\n      tag_308\n        /* \"#utility.yul\":12760:12763   */\n      dup3\n        /* \"#utility.yul\":12727:12764   */\n      tag_126\n      jump\t// in\n    tag_308:\n        /* \"#utility.yul\":12829:12847   */\n      0xffffffffffffffff\n        /* \"#utility.yul\":12821:12827   */\n      dup2\n        /* \"#utility.yul\":12818:12848   */\n      gt\n        /* \"#utility.yul\":12815:12871   */\n      iszero\n      tag_309\n      jumpi\n        /* \"#utility.yul\":12851:12869   */\n      tag_310\n      tag_133\n      jump\t// in\n    tag_310:\n        /* \"#utility.yul\":12815:12871   */\n    tag_309:\n        /* \"#utility.yul\":12895:12933   */\n      tag_311\n        /* \"#utility.yul\":12927:12931   */\n      dup3\n        /* \"#utility.yul\":12921:12932   */\n      sload\n        /* \"#utility.yul\":12895:12933   */\n      tag_89\n      jump\t// in\n    tag_311:\n        /* \"#utility.yul\":12980:13047   */\n      tag_312\n        /* \"#utility.yul\":13040:13046   */\n      dup3\n        /* \"#utility.yul\":13032:13038   */\n      dup3\n        /* \"#utility.yul\":13026:13030   */\n      dup6\n        /* \"#utility.yul\":12980:13047   */\n      tag_154\n      jump\t// in\n    tag_312:\n        /* \"#utility.yul\":13074:13075   */\n      0x00\n        /* \"#utility.yul\":13098:13102   */\n      0x20\n        /* \"#utility.yul\":13085:13102   */\n      swap1\n      pop\n        /* \"#utility.yul\":13130:13132   */\n      0x1f\n        /* \"#utility.yul\":13122:13128   */\n      dup4\n        /* \"#utility.yul\":13119:13133   */\n      gt\n        /* \"#utility.yul\":13147:13148   */\n      0x01\n        /* \"#utility.yul\":13142:13760   */\n      dup2\n      eq\n      tag_314\n      jumpi\n        /* \"#utility.yul\":13804:13805   */\n      0x00\n        /* \"#utility.yul\":13821:13827   */\n      dup5\n        /* \"#utility.yul\":13818:13895   */\n      iszero\n      tag_315\n      jumpi\n        /* \"#utility.yul\":13870:13879   */\n      dup3\n        /* \"#utility.yul\":13865:13868   */\n      dup8\n        /* \"#utility.yul\":13861:13880   */\n      add\n        /* \"#utility.yul\":13855:13881   */\n      mload\n        /* \"#utility.yul\":13846:13881   */\n      swap1\n      pop\n        /* \"#utility.yul\":13818:13895   */\n    tag_315:\n        /* \"#utility.yul\":13921:13988   */\n      tag_316\n        /* \"#utility.yul\":13981:13987   */\n      dup6\n        /* \"#utility.yul\":13974:13979   */\n      dup3\n        /* \"#utility.yul\":13921:13988   */\n      tag_157\n      jump\t// in\n    tag_316:\n        /* \"#utility.yul\":13915:13919   */\n      dup7\n        /* \"#utility.yul\":13908:13989   */\n      sstore\n        /* \"#utility.yul\":13777:13999   */\n      pop\n        /* \"#utility.yul\":13112:13999   */\n      jump(tag_313)\n        /* \"#utility.yul\":13142:13760   */\n    tag_314:\n        /* \"#utility.yul\":13194:13198   */\n      0x1f\n        /* \"#utility.yul\":13190:13199   */\n      not\n        /* \"#utility.yul\":13182:13188   */\n      dup5\n        /* \"#utility.yul\":13178:13200   */\n      and\n        /* \"#utility.yul\":13228:13265   */\n      tag_317\n        /* \"#utility.yul\":13260:13264   */\n      dup7\n        /* \"#utility.yul\":13228:13265   */\n      tag_143\n      jump\t// in\n    tag_317:\n        /* \"#utility.yul\":13287:13288   */\n      0x00\n        /* \"#utility.yul\":13301:13509   */\n    tag_318:\n        /* \"#utility.yul\":13315:13322   */\n      dup3\n        /* \"#utility.yul\":13312:13313   */\n      dup2\n        /* \"#utility.yul\":13309:13323   */\n      lt\n        /* \"#utility.yul\":13301:13509   */\n      iszero\n      tag_320\n      jumpi\n        /* \"#utility.yul\":13394:13403   */\n      dup5\n        /* \"#utility.yul\":13389:13392   */\n      dup10\n        /* \"#utility.yul\":13385:13404   */\n      add\n        /* \"#utility.yul\":13379:13405   */\n      mload\n        /* \"#utility.yul\":13371:13377   */\n      dup3\n        /* \"#utility.yul\":13364:13406   */\n      sstore\n        /* \"#utility.yul\":13445:13446   */\n      0x01\n        /* \"#utility.yul\":13437:13443   */\n      dup3\n        /* \"#utility.yul\":13433:13447   */\n      add\n        /* \"#utility.yul\":13423:13447   */\n      swap2\n      pop\n        /* \"#utility.yul\":13492:13494   */\n      0x20\n        /* \"#utility.yul\":13481:13490   */\n      dup6\n        /* \"#utility.yul\":13477:13495   */\n      add\n        /* \"#utility.yul\":13464:13495   */\n      swap5\n      pop\n        /* \"#utility.yul\":13338:13342   */\n      0x20\n        /* \"#utility.yul\":13335:13336   */\n      dup2\n        /* \"#utility.yul\":13331:13343   */\n      add\n        /* \"#utility.yul\":13326:13343   */\n      swap1\n      pop\n        /* \"#utility.yul\":13301:13509   */\n      jump(tag_318)\n    tag_320:\n        /* \"#utility.yul\":13537:13543   */\n      dup7\n        /* \"#utility.yul\":13528:13535   */\n      dup4\n        /* \"#utility.yul\":13525:13544   */\n      lt\n        /* \"#utility.yul\":13522:13701   */\n      iszero\n      tag_321\n      jumpi\n        /* \"#utility.yul\":13595:13604   */\n      dup5\n        /* \"#utility.yul\":13590:13593   */\n      dup10\n        /* \"#utility.yul\":13586:13605   */\n      add\n        /* \"#utility.yul\":13580:13606   */\n      mload\n        /* \"#utility.yul\":13638:13686   */\n      tag_322\n        /* \"#utility.yul\":13680:13684   */\n      0x1f\n        /* \"#utility.yul\":13672:13678   */\n      dup10\n        /* \"#utility.yul\":13668:13685   */\n      and\n        /* \"#utility.yul\":13657:13666   */\n      dup3\n        /* \"#utility.yul\":13638:13686   */\n      tag_156\n      jump\t// in\n    tag_322:\n        /* \"#utility.yul\":13630:13636   */\n      dup4\n        /* \"#utility.yul\":13623:13687   */\n      sstore\n        /* \"#utility.yul\":13545:13701   */\n      pop\n        /* \"#utility.yul\":13522:13701   */\n    tag_321:\n        /* \"#utility.yul\":13747:13748   */\n      0x01\n        /* \"#utility.yul\":13743:13744   */\n      0x02\n        /* \"#utility.yul\":13735:13741   */\n      dup9\n        /* \"#utility.yul\":13731:13745   */\n      mul\n        /* \"#utility.yul\":13727:13749   */\n      add\n        /* \"#utility.yul\":13721:13725   */\n      dup9\n        /* \"#utility.yul\":13714:13750   */\n      sstore\n        /* \"#utility.yul\":13149:13760   */\n      pop\n      pop\n      pop\n        /* \"#utility.yul\":13112:13999   */\n    tag_313:\n      pop\n        /* \"#utility.yul\":12702:14005   */\n      pop\n      pop\n      pop\n        /* \"#utility.yul\":12610:14005   */\n      pop\n      pop\n      jump\t// out\n\n    auxdata: 0xa2646970667358221220272fabc01cc7fcee7146fd9e71272c72eefc1e6f2817f8daafe6e691fae25d4d64736f6c63430008110033\n}\n","bytecode":{"linkReferences":{},"object":"60806040523480156200001157600080fd5b50604051620012ce380380620012ce83398181016040528101906200003791906200012b565b806000806101000a81548173ffffffffffffffffffffffffffffffffffffffff021916908373ffffffffffffffffffffffffffffffffffffffff16021790555081600181905550505062000172565b600080fd5b6000819050919050565b620000a0816200008b565b8114620000ac57600080fd5b50565b600081519050620000c08162000095565b92915050565b600073ffffffffffffffffffffffffffffffffffffffff82169050919050565b6000620000f382620000c6565b9050919050565b6200010581620000e6565b81146200011157600080fd5b50565b6000815190506200012581620000fa565b92915050565b6000806040838503121562000145576200014462000086565b5b60006200015585828601620000af565b9250506020620001688582860162000114565b9150509250929050565b61114c80620001826000396000f3fe6080604052600436106100c25760003560e01c806382fde0931161007f578063b1b1643111610059578063b1b1643114610272578063d50095841461029d578063d7bb99ba146102c8578063d7d1bbdb146102d2576100c2565b806382fde093146101f35780638a9cfd551461021e57806393bf5a7614610247576100c2565b806303441006146100c75780630a144391146100f05780634051ddac1461012d578063481c6a751461015c5780634e5361771461018757806381d12c58146101b2575b600080fd5b3480156100d357600080fd5b506100ee60048036038101906100e9919061093e565b6102fb565b005b3480156100fc57600080fd5b50610117600480360381019061011291906109c9565b610443565b6040516101249190610a11565b60405180910390f35b34801561013957600080fd5b50610142610463565b604051610153959493929190610a4a565b60405180910390f35b34801561016857600080fd5b506101716104a7565b60405161017e9190610a9d565b60405180910390f35b34801561019357600080fd5b5061019c6104cb565b6040516101a99190610ab8565b60405180910390f35b3480156101be57600080fd5b506101d960048036038101906101d4919061093e565b6104d1565b6040516101ea959493929190610b63565b60405180910390f35b3480156101ff57600080fd5b506102086105bc565b6040516102159190610ab8565b60405180910390f35b34801561022a57600080fd5b5061024560048036038101906102409190610cf2565b6105c2565b005b34801561025357600080fd5b5061025c6106ab565b6040516102699190610ab8565b60405180910390f35b34801561027e57600080fd5b506102876106b5565b6040516102949190610ab8565b60405180910390f35b3480156102a957600080fd5b506102b26106bb565b6040516102bf9190610a9d565b60405180910390f35b6102d06106e4565b005b3480156102de57600080fd5b506102f960048036038101906102f4919061093e565b6107b6565b005b60008054906101000a900473ffffffffffffffffffffffffffffffffffffffff1673ffffffffffffffffffffffffffffffffffffffff163373ffffffffffffffffffffffffffffffffffffffff161461035357600080fd5b60006005600083815260200190815260200160002090508060020160149054906101000a900460ff161561038657600080fd5b600280546103949190610dbf565b8160030154116103a357600080fd5b806001015447116103b357600080fd5b8060020160009054906101000a900473ffffffffffffffffffffffffffffffffffffffff1673ffffffffffffffffffffffffffffffffffffffff166108fc82600101549081150290604051600060405180830381858888f19350505050158015610421573d6000803e3d6000fd5b5060018160020160146101000a81548160ff0219169083151502179055505050565b60036020528060005260406000206000915054906101000a900460ff1681565b60008060008060006001544760045460025460008054906101000a900473ffffffffffffffffffffffffffffffffffffffff16945094509450945094509091929394565b60008054906101000a900473ffffffffffffffffffffffffffffffffffffffff1681565b60015481565b60056020528060005260406000206000915090508060000180546104f490610e1f565b80601f016020809104026020016040519081016040528092919081815260200182805461052090610e1f565b801561056d5780601f106105425761010080835404028352916020019161056d565b820191906000526020600020905b81548152906001019060200180831161055057829003601f168201915b5050505050908060010154908060020160009054906101000a900473ffffffffffffffffffffffffffffffffffffffff16908060020160149054906101000a900460ff16908060030154905085565b60025481565b60008054906101000a900473ffffffffffffffffffffffffffffffffffffffff1673ffffffffffffffffffffffffffffffffffffffff163373ffffffffffffffffffffffffffffffffffffffff161461061a57600080fd5b6000600560006004600081548092919061063390610e50565b9190505581526020019081526020016000209050838160000190816106589190611044565b50828160010181905550818160020160006101000a81548173ffffffffffffffffffffffffffffffffffffffff021916908373ffffffffffffffffffffffffffffffffffffffff16021790555050505050565b6000600154905090565b60045481565b60008060009054906101000a900473ffffffffffffffffffffffffffffffffffffffff16905090565b60015434116106f257600080fd5b600360003373ffffffffffffffffffffffffffffffffffffffff1673ffffffffffffffffffffffffffffffffffffffff16815260200190815260200160002060009054906101000a900460ff1661075c576002600081548092919061075690610e50565b91905055505b6001600360003373ffffffffffffffffffffffffffffffffffffffff1673ffffffffffffffffffffffffffffffffffffffff16815260200190815260200160002060006101000a81548160ff021916908315150217905550565b600360003373ffffffffffffffffffffffffffffffffffffffff1673ffffffffffffffffffffffffffffffffffffffff16815260200190815260200160002060009054906101000a900460ff1661080c57600080fd5b60006005600083815260200190815260200160002090508060040160003373ffffffffffffffffffffffffffffffffffffffff1673ffffffffffffffffffffffffffffffffffffffff16815260200190815260200160002060009054906101000a900460ff161561087c57600080fd5b60018160040160003373ffffffffffffffffffffffffffffffffffffffff1673ffffffffffffffffffffffffffffffffffffffff16815260200190815260200160002060006101000a81548160ff0219169083151502179055508060030160008154809291906108eb90610e50565b91905055505050565b6000604051905090565b600080fd5b600080fd5b6000819050919050565b61091b81610908565b811461092657600080fd5b50565b60008135905061093881610912565b92915050565b600060208284031215610954576109536108fe565b5b600061096284828501610929565b91505092915050565b600073ffffffffffffffffffffffffffffffffffffffff82169050919050565b60006109968261096b565b9050919050565b6109a68161098b565b81146109b157600080fd5b50565b6000813590506109c38161099d565b92915050565b6000602082840312156109df576109de6108fe565b5b60006109ed848285016109b4565b91505092915050565b60008115159050919050565b610a0b816109f6565b82525050565b6000602082019050610a266000830184610a02565b92915050565b610a3581610908565b82525050565b610a448161098b565b82525050565b600060a082019050610a5f6000830188610a2c565b610a6c6020830187610a2c565b610a796040830186610a2c565b610a866060830185610a2c565b610a936080830184610a3b565b9695505050505050565b6000602082019050610ab26000830184610a3b565b92915050565b6000602082019050610acd6000830184610a2c565b92915050565b600081519050919050565b600082825260208201905092915050565b60005b83811015610b0d578082015181840152602081019050610af2565b60008484015250505050565b6000601f19601f8301169050919050565b6000610b3582610ad3565b610b3f8185610ade565b9350610b4f818560208601610aef565b610b5881610b19565b840191505092915050565b600060a0820190508181036000830152610b7d8188610b2a565b9050610b8c6020830187610a2c565b610b996040830186610a3b565b610ba66060830185610a02565b610bb36080830184610a2c565b9695505050505050565b600080fd5b600080fd5b7f4e487b7100000000000000000000000000000000000000000000000000000000600052604160045260246000fd5b610bff82610b19565b810181811067ffffffffffffffff82111715610c1e57610c1d610bc7565b5b80604052505050565b6000610c316108f4565b9050610c3d8282610bf6565b919050565b600067ffffffffffffffff821115610c5d57610c5c610bc7565b5b610c6682610b19565b9050602081019050919050565b82818337600083830152505050565b6000610c95610c9084610c42565b610c27565b905082815260208101848484011115610cb157610cb0610bc2565b5b610cbc848285610c73565b509392505050565b600082601f830112610cd957610cd8610bbd565b5b8135610ce9848260208601610c82565b91505092915050565b600080600060608486031215610d0b57610d0a6108fe565b5b600084013567ffffffffffffffff811115610d2957610d28610903565b5b610d3586828701610cc4565b9350506020610d4686828701610929565b9250506040610d57868287016109b4565b9150509250925092565b7f4e487b7100000000000000000000000000000000000000000000000000000000600052601260045260246000fd5b7f4e487b7100000000000000000000000000000000000000000000000000000000600052601160045260246000fd5b6000610dca82610908565b9150610dd583610908565b925082610de557610de4610d61565b5b828204905092915050565b7f4e487b7100000000000000000000000000000000000000000000000000000000600052602260045260246000fd5b60006002820490506001821680610e3757607f821691505b602082108103610e4a57610e49610df0565b5b50919050565b6000610e5b82610908565b91507fffffffffffffffffffffffffffffffffffffffffffffffffffffffffffffffff8203610e8d57610e8c610d90565b5b600182019050919050565b60008190508160005260206000209050919050565b60006020601f8301049050919050565b600082821b905092915050565b600060088302610efa7fffffffffffffffffffffffffffffffffffffffffffffffffffffffffffffffff82610ebd565b610f048683610ebd565b95508019841693508086168417925050509392505050565b6000819050919050565b6000610f41610f3c610f3784610908565b610f1c565b610908565b9050919050565b6000819050919050565b610f5b83610f26565b610f6f610f6782610f48565b848454610eca565b825550505050565b600090565b610f84610f77565b610f8f818484610f52565b505050565b5b81811015610fb357610fa8600082610f7c565b600181019050610f95565b5050565b601f821115610ff857610fc981610e98565b610fd284610ead565b81016020851015610fe1578190505b610ff5610fed85610ead565b830182610f94565b50505b505050565b600082821c905092915050565b600061101b60001984600802610ffd565b1980831691505092915050565b6000611034838361100a565b9150826002028217905092915050565b61104d82610ad3565b67ffffffffffffffff81111561106657611065610bc7565b5b6110708254610e1f565b61107b828285610fb7565b600060209050601f8311600181146110ae576000841561109c578287015190505b6110a68582611028565b86555061110e565b601f1984166110bc86610e98565b60005b828110156110e4578489015182556001820191506020850194506020810190506110bf565b8683101561110157848901516110fd601f89168261100a565b8355505b6001600288020188555050505b50505050505056fea2646970667358221220272fabc01cc7fcee7146fd9e71272c72eefc1e6f2817f8daafe6e691fae25d4d64736f6c63430008110033","opcodes":"PUSH1 0x80 PUSH1 0x40 MSTORE CALLVALUE DUP1 ISZERO PUSH3 0x11 JUMPI PUSH1 0x0 DUP1 REVERT JUMPDEST POP PUSH1 0x40 MLOAD PUSH3 0x12CE CODESIZE SUB DUP1 PUSH3 0x12CE DUP4 CODECOPY DUP2 DUP2 ADD PUSH1 0x40 MSTORE DUP2 ADD SWAP1 PUSH3 0x37 SWAP2 SWAP1 PUSH3 0x12B JUMP JUMPDEST DUP1 PUSH1 0x0 DUP1 PUSH2 0x100 EXP DUP2 SLOAD DUP2 PUSH20 0xFFFFFFFFFFFFFFFFFFFFFFFFFFFFFFFFFFFFFFFF MUL NOT AND SWAP1 DUP4 PUSH20 0xFFFFFFFFFFFFFFFFFFFFFFFFFFFFFFFFFFFFFFFF AND MUL OR SWAP1 SSTORE POP DUP2 PUSH1 0x1 DUP2 SWAP1 SSTORE POP POP POP PUSH3 0x172 JUMP JUMPDEST PUSH1 0x0 DUP1 REVERT JUMPDEST PUSH1 0x0 DUP2 SWAP1 POP SWAP2 SWAP1 POP JUMP JUMPDEST PUSH3 0xA0 DUP2 PUSH3 0x8B JUMP JUMPDEST DUP2 EQ PUSH3 0xAC JUMPI PUSH1 0x0 DUP1 REVERT JUMPDEST POP JUMP JUMPDEST PUSH1 0x0 DUP2 MLOAD SWAP1 POP PUSH3 0xC0 DUP2 PUSH3 0x95 JUMP JUMPDEST SWAP3 SWAP2 POP POP JUMP JUMPDEST PUSH1 0x0 PUSH20 0xFFFFFFFFFFFFFFFFFFFFFFFFFFFFFFFFFFFFFFFF DUP3 AND SWAP1 POP SWAP2 SWAP1 POP JUMP JUMPDEST PUSH1 0x0 PUSH3 0xF3 DUP3 PUSH3 0xC6 JUMP JUMPDEST SWAP1 POP SWAP2 SWAP1 POP JUMP JUMPDEST PUSH3 0x105 DUP2 PUSH3 0xE6 JUMP JUMPDEST DUP2 EQ PUSH3 0x111 JUMPI PUSH1 0x0 DUP1 REVERT JUMPDEST POP JUMP JUMPDEST PUSH1 0x0 DUP2 MLOAD SWAP1 POP PUSH3 0x125 DUP2 PUSH3 0xFA JUMP JUMPDEST SWAP3 SWAP2 POP POP JUMP JUMPDEST PUSH1 0x0 DUP1 PUSH1 0x40 DUP4 DUP6 SUB SLT ISZERO PUSH3 0x145 JUMPI PUSH3 0x144 PUSH3 0x86 JUMP JUMPDEST JUMPDEST PUSH1 0x0 PUSH3 0x155 DUP6 DUP3 DUP7 ADD PUSH3 0xAF JUMP JUMPDEST SWAP3 POP POP PUSH1 0x20 PUSH3 0x168 DUP6 DUP3 DUP7 ADD PUSH3 0x114 JUMP JUMPDEST SWAP2 POP POP SWAP3 POP SWAP3 SWAP1 POP JUMP JUMPDEST PUSH2 0x114C DUP1 PUSH3 0x182 PUSH1 0x0 CODECOPY PUSH1 0x0 RETURN INVALID PUSH1 0x80 PUSH1 0x40 MSTORE PUSH1 0x4 CALLDATASIZE LT PUSH2 0xC2 JUMPI PUSH1 0x0 CALLDATALOAD PUSH1 0xE0 SHR DUP1 PUSH4 0x82FDE093 GT PUSH2 0x7F JUMPI DUP1 PUSH4 0xB1B16431 GT PUSH2 0x59 JUMPI DUP1 PUSH4 0xB1B16431 EQ PUSH2 0x272 JUMPI DUP1 PUSH4 0xD5009584 EQ PUSH2 0x29D JUMPI DUP1 PUSH4 0xD7BB99BA EQ PUSH2 0x2C8 JUMPI DUP1 PUSH4 0xD7D1BBDB EQ PUSH2 0x2D2 JUMPI PUSH2 0xC2 JUMP JUMPDEST DUP1 PUSH4 0x82FDE093 EQ PUSH2 0x1F3 JUMPI DUP1 PUSH4 0x8A9CFD55 EQ PUSH2 0x21E JUMPI DUP1 PUSH4 0x93BF5A76 EQ PUSH2 0x247 JUMPI PUSH2 0xC2 JUMP JUMPDEST DUP1 PUSH4 0x3441006 EQ PUSH2 0xC7 JUMPI DUP1 PUSH4 0xA144391 EQ PUSH2 0xF0 JUMPI DUP1 PUSH4 0x4051DDAC EQ PUSH2 0x12D JUMPI DUP1 PUSH4 0x481C6A75 EQ PUSH2 0x15C JUMPI DUP1 PUSH4 0x4E536177 EQ PUSH2 0x187 JUMPI DUP1 PUSH4 0x81D12C58 EQ PUSH2 0x1B2 JUMPI JUMPDEST PUSH1 0x0 DUP1 REVERT JUMPDEST CALLVALUE DUP1 ISZERO PUSH2 0xD3 JUMPI PUSH1 0x0 DUP1 REVERT JUMPDEST POP PUSH2 0xEE PUSH1 0x4 DUP1 CALLDATASIZE SUB DUP2 ADD SWAP1 PUSH2 0xE9 SWAP2 SWAP1 PUSH2 0x93E JUMP JUMPDEST PUSH2 0x2FB JUMP JUMPDEST STOP JUMPDEST CALLVALUE DUP1 ISZERO PUSH2 0xFC JUMPI PUSH1 0x0 DUP1 REVERT JUMPDEST POP PUSH2 0x117 PUSH1 0x4 DUP1 CALLDATASIZE SUB DUP2 ADD SWAP1 PUSH2 0x112 SWAP2 SWAP1 PUSH2 0x9C9 JUMP JUMPDEST PUSH2 0x443 JUMP JUMPDEST PUSH1 0x40 MLOAD PUSH2 0x124 SWAP2 SWAP1 PUSH2 0xA11 JUMP JUMPDEST PUSH1 0x40 MLOAD DUP1 SWAP2 SUB SWAP1 RETURN JUMPDEST CALLVALUE DUP1 ISZERO PUSH2 0x139 JUMPI PUSH1 0x0 DUP1 REVERT JUMPDEST POP PUSH2 0x142 PUSH2 0x463 JUMP JUMPDEST PUSH1 0x40 MLOAD PUSH2 0x153 SWAP6 SWAP5 SWAP4 SWAP3 SWAP2 SWAP1 PUSH2 0xA4A JUMP JUMPDEST PUSH1 0x40 MLOAD DUP1 SWAP2 SUB SWAP1 RETURN JUMPDEST CALLVALUE DUP1 ISZERO PUSH2 0x168 JUMPI PUSH1 0x0 DUP1 REVERT JUMPDEST POP PUSH2 0x171 PUSH2 0x4A7 JUMP JUMPDEST PUSH1 0x40 MLOAD PUSH2 0x17E SWAP2 SWAP1 PUSH2 0xA9D JUMP JUMPDEST PUSH1 0x40 MLOAD DUP1 SWAP2 SUB SWAP1 RETURN JUMPDEST CALLVALUE DUP1 ISZERO PUSH2 0x193 JUMPI PUSH1 0x0 DUP1 REVERT JUMPDEST POP PUSH2 0x19C PUSH2 0x4CB JUMP JUMPDEST PUSH1 0x40 MLOAD PUSH2 0x1A9 SWAP2 SWAP1 PUSH2 0xAB8 JUMP JUMPDEST PUSH1 0x40 MLOAD DUP1 SWAP2 SUB SWAP1 RETURN JUMPDEST CALLVALUE DUP1 ISZERO PUSH2 0x1BE JUMPI PUSH1 0x0 DUP1 REVERT JUMPDEST POP PUSH2 0x1D9 PUSH1 0x4 DUP1 CALLDATASIZE SUB DUP2 ADD SWAP1 PUSH2 0x1D4 SWAP2 SWAP1 PUSH2 0x93E JUMP JUMPDEST PUSH2 0x4D1 JUMP JUMPDEST PUSH1 0x40 MLOAD PUSH2 0x1EA SWAP6 SWAP5 SWAP4 SWAP3 SWAP2 SWAP1 PUSH2 0xB63 JUMP JUMPDEST PUSH1 0x40 MLOAD DUP1 SWAP2 SUB SWAP1 RETURN JUMPDEST CALLVALUE DUP1 ISZERO PUSH2 0x1FF JUMPI PUSH1 0x0 DUP1 REVERT JUMPDEST POP PUSH2 0x208 PUSH2 0x5BC JUMP JUMPDEST PUSH1 0x40 MLOAD PUSH2 0x215 SWAP2 SWAP1 PUSH2 0xAB8 JUMP JUMPDEST PUSH1 0x40 MLOAD DUP1 SWAP2 SUB SWAP1 RETURN JUMPDEST CALLVALUE DUP1 ISZERO PUSH2 0x22A JUMPI PUSH1 0x0 DUP1 REVERT JUMPDEST POP PUSH2 0x245 PUSH1 0x4 DUP1 CALLDATASIZE SUB DUP2 ADD SWAP1 PUSH2 0x240 SWAP2 SWAP1 PUSH2 0xCF2 JUMP JUMPDEST PUSH2 0x5C2 JUMP JUMPDEST STOP JUMPDEST CALLVALUE DUP1 ISZERO PUSH2 0x253 JUMPI PUSH1 0x0 DUP1 REVERT JUMPDEST POP PUSH2 0x25C PUSH2 0x6AB JUMP JUMPDEST PUSH1 0x40 MLOAD PUSH2 0x269 SWAP2 SWAP1 PUSH2 0xAB8 JUMP JUMPDEST PUSH1 0x40 MLOAD DUP1 SWAP2 SUB SWAP1 RETURN JUMPDEST CALLVALUE DUP1 ISZERO PUSH2 0x27E JUMPI PUSH1 0x0 DUP1 REVERT JUMPDEST POP PUSH2 0x287 PUSH2 0x6B5 JUMP JUMPDEST PUSH1 0x40 MLOAD PUSH2 0x294 SWAP2 SWAP1 PUSH2 0xAB8 JUMP JUMPDEST PUSH1 0x40 MLOAD DUP1 SWAP2 SUB SWAP1 RETURN JUMPDEST CALLVALUE DUP1 ISZERO PUSH2 0x2A9 JUMPI PUSH1 0x0 DUP1 REVERT JUMPDEST POP PUSH2 0x2B2 PUSH2 0x6BB JUMP JUMPDEST PUSH1 0x40 MLOAD PUSH2 0x2BF SWAP2 SWAP1 PUSH2 0xA9D JUMP JUMPDEST PUSH1 0x40 MLOAD DUP1 SWAP2 SUB SWAP1 RETURN JUMPDEST PUSH2 0x2D0 PUSH2 0x6E4 JUMP JUMPDEST STOP JUMPDEST CALLVALUE DUP1 ISZERO PUSH2 0x2DE JUMPI PUSH1 0x0 DUP1 REVERT JUMPDEST POP PUSH2 0x2F9 PUSH1 0x4 DUP1 CALLDATASIZE SUB DUP2 ADD SWAP1 PUSH2 0x2F4 SWAP2 SWAP1 PUSH2 0x93E JUMP JUMPDEST PUSH2 0x7B6 JUMP JUMPDEST STOP JUMPDEST PUSH1 0x0 DUP1 SLOAD SWAP1 PUSH2 0x100 EXP SWAP1 DIV PUSH20 0xFFFFFFFFFFFFFFFFFFFFFFFFFFFFFFFFFFFFFFFF AND PUSH20 0xFFFFFFFFFFFFFFFFFFFFFFFFFFFFFFFFFFFFFFFF AND CALLER PUSH20 0xFFFFFFFFFFFFFFFFFFFFFFFFFFFFFFFFFFFFFFFF AND EQ PUSH2 0x353 JUMPI PUSH1 0x0 DUP1 REVERT JUMPDEST PUSH1 0x0 PUSH1 0x5 PUSH1 0x0 DUP4 DUP2 MSTORE PUSH1 0x20 ADD SWAP1 DUP2 MSTORE PUSH1 0x20 ADD PUSH1 0x0 KECCAK256 SWAP1 POP DUP1 PUSH1 0x2 ADD PUSH1 0x14 SWAP1 SLOAD SWAP1 PUSH2 0x100 EXP SWAP1 DIV PUSH1 0xFF AND ISZERO PUSH2 0x386 JUMPI PUSH1 0x0 DUP1 REVERT JUMPDEST PUSH1 0x2 DUP1 SLOAD PUSH2 0x394 SWAP2 SWAP1 PUSH2 0xDBF JUMP JUMPDEST DUP2 PUSH1 0x3 ADD SLOAD GT PUSH2 0x3A3 JUMPI PUSH1 0x0 DUP1 REVERT JUMPDEST DUP1 PUSH1 0x1 ADD SLOAD SELFBALANCE GT PUSH2 0x3B3 JUMPI PUSH1 0x0 DUP1 REVERT JUMPDEST DUP1 PUSH1 0x2 ADD PUSH1 0x0 SWAP1 SLOAD SWAP1 PUSH2 0x100 EXP SWAP1 DIV PUSH20 0xFFFFFFFFFFFFFFFFFFFFFFFFFFFFFFFFFFFFFFFF AND PUSH20 0xFFFFFFFFFFFFFFFFFFFFFFFFFFFFFFFFFFFFFFFF AND PUSH2 0x8FC DUP3 PUSH1 0x1 ADD SLOAD SWAP1 DUP2 ISZERO MUL SWAP1 PUSH1 0x40 MLOAD PUSH1 0x0 PUSH1 0x40 MLOAD DUP1 DUP4 SUB DUP2 DUP6 DUP9 DUP9 CALL SWAP4 POP POP POP POP ISZERO DUP1 ISZERO PUSH2 0x421 JUMPI RETURNDATASIZE PUSH1 0x0 DUP1 RETURNDATACOPY RETURNDATASIZE PUSH1 0x0 REVERT JUMPDEST POP PUSH1 0x1 DUP2 PUSH1 0x2 ADD PUSH1 0x14 PUSH2 0x100 EXP DUP2 SLOAD DUP2 PUSH1 0xFF MUL NOT AND SWAP1 DUP4 ISZERO ISZERO MUL OR SWAP1 SSTORE POP POP POP JUMP JUMPDEST PUSH1 0x3 PUSH1 0x20 MSTORE DUP1 PUSH1 0x0 MSTORE PUSH1 0x40 PUSH1 0x0 KECCAK256 PUSH1 0x0 SWAP2 POP SLOAD SWAP1 PUSH2 0x100 EXP SWAP1 DIV PUSH1 0xFF AND DUP2 JUMP JUMPDEST PUSH1 0x0 DUP1 PUSH1 0x0 DUP1 PUSH1 0x0 PUSH1 0x1 SLOAD SELFBALANCE PUSH1 0x4 SLOAD PUSH1 0x2 SLOAD PUSH1 0x0 DUP1 SLOAD SWAP1 PUSH2 0x100 EXP SWAP1 DIV PUSH20 0xFFFFFFFFFFFFFFFFFFFFFFFFFFFFFFFFFFFFFFFF AND SWAP5 POP SWAP5 POP SWAP5 POP SWAP5 POP SWAP5 POP SWAP1 SWAP2 SWAP3 SWAP4 SWAP5 JUMP JUMPDEST PUSH1 0x0 DUP1 SLOAD SWAP1 PUSH2 0x100 EXP SWAP1 DIV PUSH20 0xFFFFFFFFFFFFFFFFFFFFFFFFFFFFFFFFFFFFFFFF AND DUP2 JUMP JUMPDEST PUSH1 0x1 SLOAD DUP2 JUMP JUMPDEST PUSH1 0x5 PUSH1 0x20 MSTORE DUP1 PUSH1 0x0 MSTORE PUSH1 0x40 PUSH1 0x0 KECCAK256 PUSH1 0x0 SWAP2 POP SWAP1 POP DUP1 PUSH1 0x0 ADD DUP1 SLOAD PUSH2 0x4F4 SWAP1 PUSH2 0xE1F JUMP JUMPDEST DUP1 PUSH1 0x1F ADD PUSH1 0x20 DUP1 SWAP2 DIV MUL PUSH1 0x20 ADD PUSH1 0x40 MLOAD SWAP1 DUP2 ADD PUSH1 0x40 MSTORE DUP1 SWAP3 SWAP2 SWAP1 DUP2 DUP2 MSTORE PUSH1 0x20 ADD DUP3 DUP1 SLOAD PUSH2 0x520 SWAP1 PUSH2 0xE1F JUMP JUMPDEST DUP1 ISZERO PUSH2 0x56D JUMPI DUP1 PUSH1 0x1F LT PUSH2 0x542 JUMPI PUSH2 0x100 DUP1 DUP4 SLOAD DIV MUL DUP4 MSTORE SWAP2 PUSH1 0x20 ADD SWAP2 PUSH2 0x56D JUMP JUMPDEST DUP3 ADD SWAP2 SWAP1 PUSH1 0x0 MSTORE PUSH1 0x20 PUSH1 0x0 KECCAK256 SWAP1 JUMPDEST DUP2 SLOAD DUP2 MSTORE SWAP1 PUSH1 0x1 ADD SWAP1 PUSH1 0x20 ADD DUP1 DUP4 GT PUSH2 0x550 JUMPI DUP3 SWAP1 SUB PUSH1 0x1F AND DUP3 ADD SWAP2 JUMPDEST POP POP POP POP POP SWAP1 DUP1 PUSH1 0x1 ADD SLOAD SWAP1 DUP1 PUSH1 0x2 ADD PUSH1 0x0 SWAP1 SLOAD SWAP1 PUSH2 0x100 EXP SWAP1 DIV PUSH20 0xFFFFFFFFFFFFFFFFFFFFFFFFFFFFFFFFFFFFFFFF AND SWAP1 DUP1 PUSH1 0x2 ADD PUSH1 0x14 SWAP1 SLOAD SWAP1 PUSH2 0x100 EXP SWAP1 DIV PUSH1 0xFF AND SWAP1 DUP1 PUSH1 0x3 ADD SLOAD SWAP1 POP DUP6 JUMP JUMPDEST PUSH1 0x2 SLOAD DUP2 JUMP JUMPDEST PUSH1 0x0 DUP1 SLOAD SWAP1 PUSH2 0x100 EXP SWAP1 DIV PUSH20 0xFFFFFFFFFFFFFFFFFFFFFFFFFFFFFFFFFFFFFFFF AND PUSH20 0xFFFFFFFFFFFFFFFFFFFFFFFFFFFFFFFFFFFFFFFF AND CALLER PUSH20 0xFFFFFFFFFFFFFFFFFFFFFFFFFFFFFFFFFFFFFFFF AND EQ PUSH2 0x61A JUMPI PUSH1 0x0 DUP1 REVERT JUMPDEST PUSH1 0x0 PUSH1 0x5 PUSH1 0x0 PUSH1 0x4 PUSH1 0x0 DUP2 SLOAD DUP1 SWAP3 SWAP2 SWAP1 PUSH2 0x633 SWAP1 PUSH2 0xE50 JUMP JUMPDEST SWAP2 SWAP1 POP SSTORE DUP2 MSTORE PUSH1 0x20 ADD SWAP1 DUP2 MSTORE PUSH1 0x20 ADD PUSH1 0x0 KECCAK256 SWAP1 POP DUP4 DUP2 PUSH1 0x0 ADD SWAP1 DUP2 PUSH2 0x658 SWAP2 SWAP1 PUSH2 0x1044 JUMP JUMPDEST POP DUP3 DUP2 PUSH1 0x1 ADD DUP2 SWAP1 SSTORE POP DUP2 DUP2 PUSH1 0x2 ADD PUSH1 0x0 PUSH2 0x100 EXP DUP2 SLOAD DUP2 PUSH20 0xFFFFFFFFFFFFFFFFFFFFFFFFFFFFFFFFFFFFFFFF MUL NOT AND SWAP1 DUP4 PUSH20 0xFFFFFFFFFFFFFFFFFFFFFFFFFFFFFFFFFFFFFFFF AND MUL OR SWAP1 SSTORE POP POP POP POP POP JUMP JUMPDEST PUSH1 0x0 PUSH1 0x1 SLOAD SWAP1 POP SWAP1 JUMP JUMPDEST PUSH1 0x4 SLOAD DUP2 JUMP JUMPDEST PUSH1 0x0 DUP1 PUSH1 0x0 SWAP1 SLOAD SWAP1 PUSH2 0x100 EXP SWAP1 DIV PUSH20 0xFFFFFFFFFFFFFFFFFFFFFFFFFFFFFFFFFFFFFFFF AND SWAP1 POP SWAP1 JUMP JUMPDEST PUSH1 0x1 SLOAD CALLVALUE GT PUSH2 0x6F2 JUMPI PUSH1 0x0 DUP1 REVERT JUMPDEST PUSH1 0x3 PUSH1 0x0 CALLER PUSH20 0xFFFFFFFFFFFFFFFFFFFFFFFFFFFFFFFFFFFFFFFF AND PUSH20 0xFFFFFFFFFFFFFFFFFFFFFFFFFFFFFFFFFFFFFFFF AND DUP2 MSTORE PUSH1 0x20 ADD SWAP1 DUP2 MSTORE PUSH1 0x20 ADD PUSH1 0x0 KECCAK256 PUSH1 0x0 SWAP1 SLOAD SWAP1 PUSH2 0x100 EXP SWAP1 DIV PUSH1 0xFF AND PUSH2 0x75C JUMPI PUSH1 0x2 PUSH1 0x0 DUP2 SLOAD DUP1 SWAP3 SWAP2 SWAP1 PUSH2 0x756 SWAP1 PUSH2 0xE50 JUMP JUMPDEST SWAP2 SWAP1 POP SSTORE POP JUMPDEST PUSH1 0x1 PUSH1 0x3 PUSH1 0x0 CALLER PUSH20 0xFFFFFFFFFFFFFFFFFFFFFFFFFFFFFFFFFFFFFFFF AND PUSH20 0xFFFFFFFFFFFFFFFFFFFFFFFFFFFFFFFFFFFFFFFF AND DUP2 MSTORE PUSH1 0x20 ADD SWAP1 DUP2 MSTORE PUSH1 0x20 ADD PUSH1 0x0 KECCAK256 PUSH1 0x0 PUSH2 0x100 EXP DUP2 SLOAD DUP2 PUSH1 0xFF MUL NOT AND SWAP1 DUP4 ISZERO ISZERO MUL OR SWAP1 SSTORE POP JUMP JUMPDEST PUSH1 0x3 PUSH1 0x0 CALLER PUSH20 0xFFFFFFFFFFFFFFFFFFFFFFFFFFFFFFFFFFFFFFFF AND PUSH20 0xFFFFFFFFFFFFFFFFFFFFFFFFFFFFFFFFFFFFFFFF AND DUP2 MSTORE PUSH1 0x20 ADD SWAP1 DUP2 MSTORE PUSH1 0x20 ADD PUSH1 0x0 KECCAK256 PUSH1 0x0 SWAP1 SLOAD SWAP1 PUSH2 0x100 EXP SWAP1 DIV PUSH1 0xFF AND PUSH2 0x80C JUMPI PUSH1 0x0 DUP1 REVERT JUMPDEST PUSH1 0x0 PUSH1 0x5 PUSH1 0x0 DUP4 DUP2 MSTORE PUSH1 0x20 ADD SWAP1 DUP2 MSTORE PUSH1 0x20 ADD PUSH1 0x0 KECCAK256 SWAP1 POP DUP1 PUSH1 0x4 ADD PUSH1 0x0 CALLER PUSH20 0xFFFFFFFFFFFFFFFFFFFFFFFFFFFFFFFFFFFFFFFF AND PUSH20 0xFFFFFFFFFFFFFFFFFFFFFFFFFFFFFFFFFFFFFFFF AND DUP2 MSTORE PUSH1 0x20 ADD SWAP1 DUP2 MSTORE PUSH1 0x20 ADD PUSH1 0x0 KECCAK256 PUSH1 0x0 SWAP1 SLOAD SWAP1 PUSH2 0x100 EXP SWAP1 DIV PUSH1 0xFF AND ISZERO PUSH2 0x87C JUMPI PUSH1 0x0 DUP1 REVERT JUMPDEST PUSH1 0x1 DUP2 PUSH1 0x4 ADD PUSH1 0x0 CALLER PUSH20 0xFFFFFFFFFFFFFFFFFFFFFFFFFFFFFFFFFFFFFFFF AND PUSH20 0xFFFFFFFFFFFFFFFFFFFFFFFFFFFFFFFFFFFFFFFF AND DUP2 MSTORE PUSH1 0x20 ADD SWAP1 DUP2 MSTORE PUSH1 0x20 ADD PUSH1 0x0 KECCAK256 PUSH1 0x0 PUSH2 0x100 EXP DUP2 SLOAD DUP2 PUSH1 0xFF MUL NOT AND SWAP1 DUP4 ISZERO ISZERO MUL OR SWAP1 SSTORE POP DUP1 PUSH1 0x3 ADD PUSH1 0x0 DUP2 SLOAD DUP1 SWAP3 SWAP2 SWAP1 PUSH2 0x8EB SWAP1 PUSH2 0xE50 JUMP JUMPDEST SWAP2 SWAP1 POP SSTORE POP POP POP JUMP JUMPDEST PUSH1 0x0 PUSH1 0x40 MLOAD SWAP1 POP SWAP1 JUMP JUMPDEST PUSH1 0x0 DUP1 REVERT JUMPDEST PUSH1 0x0 DUP1 REVERT JUMPDEST PUSH1 0x0 DUP2 SWAP1 POP SWAP2 SWAP1 POP JUMP JUMPDEST PUSH2 0x91B DUP2 PUSH2 0x908 JUMP JUMPDEST DUP2 EQ PUSH2 0x926 JUMPI PUSH1 0x0 DUP1 REVERT JUMPDEST POP JUMP JUMPDEST PUSH1 0x0 DUP2 CALLDATALOAD SWAP1 POP PUSH2 0x938 DUP2 PUSH2 0x912 JUMP JUMPDEST SWAP3 SWAP2 POP POP JUMP JUMPDEST PUSH1 0x0 PUSH1 0x20 DUP3 DUP5 SUB SLT ISZERO PUSH2 0x954 JUMPI PUSH2 0x953 PUSH2 0x8FE JUMP JUMPDEST JUMPDEST PUSH1 0x0 PUSH2 0x962 DUP5 DUP3 DUP6 ADD PUSH2 0x929 JUMP JUMPDEST SWAP2 POP POP SWAP3 SWAP2 POP POP JUMP JUMPDEST PUSH1 0x0 PUSH20 0xFFFFFFFFFFFFFFFFFFFFFFFFFFFFFFFFFFFFFFFF DUP3 AND SWAP1 POP SWAP2 SWAP1 POP JUMP JUMPDEST PUSH1 0x0 PUSH2 0x996 DUP3 PUSH2 0x96B JUMP JUMPDEST SWAP1 POP SWAP2 SWAP1 POP JUMP JUMPDEST PUSH2 0x9A6 DUP2 PUSH2 0x98B JUMP JUMPDEST DUP2 EQ PUSH2 0x9B1 JUMPI PUSH1 0x0 DUP1 REVERT JUMPDEST POP JUMP JUMPDEST PUSH1 0x0 DUP2 CALLDATALOAD SWAP1 POP PUSH2 0x9C3 DUP2 PUSH2 0x99D JUMP JUMPDEST SWAP3 SWAP2 POP POP JUMP JUMPDEST PUSH1 0x0 PUSH1 0x20 DUP3 DUP5 SUB SLT ISZERO PUSH2 0x9DF JUMPI PUSH2 0x9DE PUSH2 0x8FE JUMP JUMPDEST JUMPDEST PUSH1 0x0 PUSH2 0x9ED DUP5 DUP3 DUP6 ADD PUSH2 0x9B4 JUMP JUMPDEST SWAP2 POP POP SWAP3 SWAP2 POP POP JUMP JUMPDEST PUSH1 0x0 DUP2 ISZERO ISZERO SWAP1 POP SWAP2 SWAP1 POP JUMP JUMPDEST PUSH2 0xA0B DUP2 PUSH2 0x9F6 JUMP JUMPDEST DUP3 MSTORE POP POP JUMP JUMPDEST PUSH1 0x0 PUSH1 0x20 DUP3 ADD SWAP1 POP PUSH2 0xA26 PUSH1 0x0 DUP4 ADD DUP5 PUSH2 0xA02 JUMP JUMPDEST SWAP3 SWAP2 POP POP JUMP JUMPDEST PUSH2 0xA35 DUP2 PUSH2 0x908 JUMP JUMPDEST DUP3 MSTORE POP POP JUMP JUMPDEST PUSH2 0xA44 DUP2 PUSH2 0x98B JUMP JUMPDEST DUP3 MSTORE POP POP JUMP JUMPDEST PUSH1 0x0 PUSH1 0xA0 DUP3 ADD SWAP1 POP PUSH2 0xA5F PUSH1 0x0 DUP4 ADD DUP9 PUSH2 0xA2C JUMP JUMPDEST PUSH2 0xA6C PUSH1 0x20 DUP4 ADD DUP8 PUSH2 0xA2C JUMP JUMPDEST PUSH2 0xA79 PUSH1 0x40 DUP4 ADD DUP7 PUSH2 0xA2C JUMP JUMPDEST PUSH2 0xA86 PUSH1 0x60 DUP4 ADD DUP6 PUSH2 0xA2C JUMP JUMPDEST PUSH2 0xA93 PUSH1 0x80 DUP4 ADD DUP5 PUSH2 0xA3B JUMP JUMPDEST SWAP7 SWAP6 POP POP POP POP POP POP JUMP JUMPDEST PUSH1 0x0 PUSH1 0x20 DUP3 ADD SWAP1 POP PUSH2 0xAB2 PUSH1 0x0 DUP4 ADD DUP5 PUSH2 0xA3B JUMP JUMPDEST SWAP3 SWAP2 POP POP JUMP JUMPDEST PUSH1 0x0 PUSH1 0x20 DUP3 ADD SWAP1 POP PUSH2 0xACD PUSH1 0x0 DUP4 ADD DUP5 PUSH2 0xA2C JUMP JUMPDEST SWAP3 SWAP2 POP POP JUMP JUMPDEST PUSH1 0x0 DUP2 MLOAD SWAP1 POP SWAP2 SWAP1 POP JUMP JUMPDEST PUSH1 0x0 DUP3 DUP3 MSTORE PUSH1 0x20 DUP3 ADD SWAP1 POP SWAP3 SWAP2 POP POP JUMP JUMPDEST PUSH1 0x0 JUMPDEST DUP4 DUP2 LT ISZERO PUSH2 0xB0D JUMPI DUP1 DUP3 ADD MLOAD DUP2 DUP5 ADD MSTORE PUSH1 0x20 DUP2 ADD SWAP1 POP PUSH2 0xAF2 JUMP JUMPDEST PUSH1 0x0 DUP5 DUP5 ADD MSTORE POP POP POP POP JUMP JUMPDEST PUSH1 0x0 PUSH1 0x1F NOT PUSH1 0x1F DUP4 ADD AND SWAP1 POP SWAP2 SWAP1 POP JUMP JUMPDEST PUSH1 0x0 PUSH2 0xB35 DUP3 PUSH2 0xAD3 JUMP JUMPDEST PUSH2 0xB3F DUP2 DUP6 PUSH2 0xADE JUMP JUMPDEST SWAP4 POP PUSH2 0xB4F DUP2 DUP6 PUSH1 0x20 DUP7 ADD PUSH2 0xAEF JUMP JUMPDEST PUSH2 0xB58 DUP2 PUSH2 0xB19 JUMP JUMPDEST DUP5 ADD SWAP2 POP POP SWAP3 SWAP2 POP POP JUMP JUMPDEST PUSH1 0x0 PUSH1 0xA0 DUP3 ADD SWAP1 POP DUP2 DUP2 SUB PUSH1 0x0 DUP4 ADD MSTORE PUSH2 0xB7D DUP2 DUP9 PUSH2 0xB2A JUMP JUMPDEST SWAP1 POP PUSH2 0xB8C PUSH1 0x20 DUP4 ADD DUP8 PUSH2 0xA2C JUMP JUMPDEST PUSH2 0xB99 PUSH1 0x40 DUP4 ADD DUP7 PUSH2 0xA3B JUMP JUMPDEST PUSH2 0xBA6 PUSH1 0x60 DUP4 ADD DUP6 PUSH2 0xA02 JUMP JUMPDEST PUSH2 0xBB3 PUSH1 0x80 DUP4 ADD DUP5 PUSH2 0xA2C JUMP JUMPDEST SWAP7 SWAP6 POP POP POP POP POP POP JUMP JUMPDEST PUSH1 0x0 DUP1 REVERT JUMPDEST PUSH1 0x0 DUP1 REVERT JUMPDEST PUSH32 0x4E487B7100000000000000000000000000000000000000000000000000000000 PUSH1 0x0 MSTORE PUSH1 0x41 PUSH1 0x4 MSTORE PUSH1 0x24 PUSH1 0x0 REVERT JUMPDEST PUSH2 0xBFF DUP3 PUSH2 0xB19 JUMP JUMPDEST DUP2 ADD DUP2 DUP2 LT PUSH8 0xFFFFFFFFFFFFFFFF DUP3 GT OR ISZERO PUSH2 0xC1E JUMPI PUSH2 0xC1D PUSH2 0xBC7 JUMP JUMPDEST JUMPDEST DUP1 PUSH1 0x40 MSTORE POP POP POP JUMP JUMPDEST PUSH1 0x0 PUSH2 0xC31 PUSH2 0x8F4 JUMP JUMPDEST SWAP1 POP PUSH2 0xC3D DUP3 DUP3 PUSH2 0xBF6 JUMP JUMPDEST SWAP2 SWAP1 POP JUMP JUMPDEST PUSH1 0x0 PUSH8 0xFFFFFFFFFFFFFFFF DUP3 GT ISZERO PUSH2 0xC5D JUMPI PUSH2 0xC5C PUSH2 0xBC7 JUMP JUMPDEST JUMPDEST PUSH2 0xC66 DUP3 PUSH2 0xB19 JUMP JUMPDEST SWAP1 POP PUSH1 0x20 DUP2 ADD SWAP1 POP SWAP2 SWAP1 POP JUMP JUMPDEST DUP3 DUP2 DUP4 CALLDATACOPY PUSH1 0x0 DUP4 DUP4 ADD MSTORE POP POP POP JUMP JUMPDEST PUSH1 0x0 PUSH2 0xC95 PUSH2 0xC90 DUP5 PUSH2 0xC42 JUMP JUMPDEST PUSH2 0xC27 JUMP JUMPDEST SWAP1 POP DUP3 DUP2 MSTORE PUSH1 0x20 DUP2 ADD DUP5 DUP5 DUP5 ADD GT ISZERO PUSH2 0xCB1 JUMPI PUSH2 0xCB0 PUSH2 0xBC2 JUMP JUMPDEST JUMPDEST PUSH2 0xCBC DUP5 DUP3 DUP6 PUSH2 0xC73 JUMP JUMPDEST POP SWAP4 SWAP3 POP POP POP JUMP JUMPDEST PUSH1 0x0 DUP3 PUSH1 0x1F DUP4 ADD SLT PUSH2 0xCD9 JUMPI PUSH2 0xCD8 PUSH2 0xBBD JUMP JUMPDEST JUMPDEST DUP2 CALLDATALOAD PUSH2 0xCE9 DUP5 DUP3 PUSH1 0x20 DUP7 ADD PUSH2 0xC82 JUMP JUMPDEST SWAP2 POP POP SWAP3 SWAP2 POP POP JUMP JUMPDEST PUSH1 0x0 DUP1 PUSH1 0x0 PUSH1 0x60 DUP5 DUP7 SUB SLT ISZERO PUSH2 0xD0B JUMPI PUSH2 0xD0A PUSH2 0x8FE JUMP JUMPDEST JUMPDEST PUSH1 0x0 DUP5 ADD CALLDATALOAD PUSH8 0xFFFFFFFFFFFFFFFF DUP2 GT ISZERO PUSH2 0xD29 JUMPI PUSH2 0xD28 PUSH2 0x903 JUMP JUMPDEST JUMPDEST PUSH2 0xD35 DUP7 DUP3 DUP8 ADD PUSH2 0xCC4 JUMP JUMPDEST SWAP4 POP POP PUSH1 0x20 PUSH2 0xD46 DUP7 DUP3 DUP8 ADD PUSH2 0x929 JUMP JUMPDEST SWAP3 POP POP PUSH1 0x40 PUSH2 0xD57 DUP7 DUP3 DUP8 ADD PUSH2 0x9B4 JUMP JUMPDEST SWAP2 POP POP SWAP3 POP SWAP3 POP SWAP3 JUMP JUMPDEST PUSH32 0x4E487B7100000000000000000000000000000000000000000000000000000000 PUSH1 0x0 MSTORE PUSH1 0x12 PUSH1 0x4 MSTORE PUSH1 0x24 PUSH1 0x0 REVERT JUMPDEST PUSH32 0x4E487B7100000000000000000000000000000000000000000000000000000000 PUSH1 0x0 MSTORE PUSH1 0x11 PUSH1 0x4 MSTORE PUSH1 0x24 PUSH1 0x0 REVERT JUMPDEST PUSH1 0x0 PUSH2 0xDCA DUP3 PUSH2 0x908 JUMP JUMPDEST SWAP2 POP PUSH2 0xDD5 DUP4 PUSH2 0x908 JUMP JUMPDEST SWAP3 POP DUP3 PUSH2 0xDE5 JUMPI PUSH2 0xDE4 PUSH2 0xD61 JUMP JUMPDEST JUMPDEST DUP3 DUP3 DIV SWAP1 POP SWAP3 SWAP2 POP POP JUMP JUMPDEST PUSH32 0x4E487B7100000000000000000000000000000000000000000000000000000000 PUSH1 0x0 MSTORE PUSH1 0x22 PUSH1 0x4 MSTORE PUSH1 0x24 PUSH1 0x0 REVERT JUMPDEST PUSH1 0x0 PUSH1 0x2 DUP3 DIV SWAP1 POP PUSH1 0x1 DUP3 AND DUP1 PUSH2 0xE37 JUMPI PUSH1 0x7F DUP3 AND SWAP2 POP JUMPDEST PUSH1 0x20 DUP3 LT DUP2 SUB PUSH2 0xE4A JUMPI PUSH2 0xE49 PUSH2 0xDF0 JUMP JUMPDEST JUMPDEST POP SWAP2 SWAP1 POP JUMP JUMPDEST PUSH1 0x0 PUSH2 0xE5B DUP3 PUSH2 0x908 JUMP JUMPDEST SWAP2 POP PUSH32 0xFFFFFFFFFFFFFFFFFFFFFFFFFFFFFFFFFFFFFFFFFFFFFFFFFFFFFFFFFFFFFFFF DUP3 SUB PUSH2 0xE8D JUMPI PUSH2 0xE8C PUSH2 0xD90 JUMP JUMPDEST JUMPDEST PUSH1 0x1 DUP3 ADD SWAP1 POP SWAP2 SWAP1 POP JUMP JUMPDEST PUSH1 0x0 DUP2 SWAP1 POP DUP2 PUSH1 0x0 MSTORE PUSH1 0x20 PUSH1 0x0 KECCAK256 SWAP1 POP SWAP2 SWAP1 POP JUMP JUMPDEST PUSH1 0x0 PUSH1 0x20 PUSH1 0x1F DUP4 ADD DIV SWAP1 POP SWAP2 SWAP1 POP JUMP JUMPDEST PUSH1 0x0 DUP3 DUP3 SHL SWAP1 POP SWAP3 SWAP2 POP POP JUMP JUMPDEST PUSH1 0x0 PUSH1 0x8 DUP4 MUL PUSH2 0xEFA PUSH32 0xFFFFFFFFFFFFFFFFFFFFFFFFFFFFFFFFFFFFFFFFFFFFFFFFFFFFFFFFFFFFFFFF DUP3 PUSH2 0xEBD JUMP JUMPDEST PUSH2 0xF04 DUP7 DUP4 PUSH2 0xEBD JUMP JUMPDEST SWAP6 POP DUP1 NOT DUP5 AND SWAP4 POP DUP1 DUP7 AND DUP5 OR SWAP3 POP POP POP SWAP4 SWAP3 POP POP POP JUMP JUMPDEST PUSH1 0x0 DUP2 SWAP1 POP SWAP2 SWAP1 POP JUMP JUMPDEST PUSH1 0x0 PUSH2 0xF41 PUSH2 0xF3C PUSH2 0xF37 DUP5 PUSH2 0x908 JUMP JUMPDEST PUSH2 0xF1C JUMP JUMPDEST PUSH2 0x908 JUMP JUMPDEST SWAP1 POP SWAP2 SWAP1 POP JUMP JUMPDEST PUSH1 0x0 DUP2 SWAP1 POP SWAP2 SWAP1 POP JUMP JUMPDEST PUSH2 0xF5B DUP4 PUSH2 0xF26 JUMP JUMPDEST PUSH2 0xF6F PUSH2 0xF67 DUP3 PUSH2 0xF48 JUMP JUMPDEST DUP5 DUP5 SLOAD PUSH2 0xECA JUMP JUMPDEST DUP3 SSTORE POP POP POP POP JUMP JUMPDEST PUSH1 0x0 SWAP1 JUMP JUMPDEST PUSH2 0xF84 PUSH2 0xF77 JUMP JUMPDEST PUSH2 0xF8F DUP2 DUP5 DUP5 PUSH2 0xF52 JUMP JUMPDEST POP POP POP JUMP JUMPDEST JUMPDEST DUP2 DUP2 LT ISZERO PUSH2 0xFB3 JUMPI PUSH2 0xFA8 PUSH1 0x0 DUP3 PUSH2 0xF7C JUMP JUMPDEST PUSH1 0x1 DUP2 ADD SWAP1 POP PUSH2 0xF95 JUMP JUMPDEST POP POP JUMP JUMPDEST PUSH1 0x1F DUP3 GT ISZERO PUSH2 0xFF8 JUMPI PUSH2 0xFC9 DUP2 PUSH2 0xE98 JUMP JUMPDEST PUSH2 0xFD2 DUP5 PUSH2 0xEAD JUMP JUMPDEST DUP2 ADD PUSH1 0x20 DUP6 LT ISZERO PUSH2 0xFE1 JUMPI DUP2 SWAP1 POP JUMPDEST PUSH2 0xFF5 PUSH2 0xFED DUP6 PUSH2 0xEAD JUMP JUMPDEST DUP4 ADD DUP3 PUSH2 0xF94 JUMP JUMPDEST POP POP JUMPDEST POP POP POP JUMP JUMPDEST PUSH1 0x0 DUP3 DUP3 SHR SWAP1 POP SWAP3 SWAP2 POP POP JUMP JUMPDEST PUSH1 0x0 PUSH2 0x101B PUSH1 0x0 NOT DUP5 PUSH1 0x8 MUL PUSH2 0xFFD JUMP JUMPDEST NOT DUP1 DUP4 AND SWAP2 POP POP SWAP3 SWAP2 POP POP JUMP JUMPDEST PUSH1 0x0 PUSH2 0x1034 DUP4 DUP4 PUSH2 0x100A JUMP JUMPDEST SWAP2 POP DUP3 PUSH1 0x2 MUL DUP3 OR SWAP1 POP SWAP3 SWAP2 POP POP JUMP JUMPDEST PUSH2 0x104D DUP3 PUSH2 0xAD3 JUMP JUMPDEST PUSH8 0xFFFFFFFFFFFFFFFF DUP2 GT ISZERO PUSH2 0x1066 JUMPI PUSH2 0x1065 PUSH2 0xBC7 JUMP JUMPDEST JUMPDEST PUSH2 0x1070 DUP3 SLOAD PUSH2 0xE1F JUMP JUMPDEST PUSH2 0x107B DUP3 DUP3 DUP6 PUSH2 0xFB7 JUMP JUMPDEST PUSH1 0x0 PUSH1 0x20 SWAP1 POP PUSH1 0x1F DUP4 GT PUSH1 0x1 DUP2 EQ PUSH2 0x10AE JUMPI PUSH1 0x0 DUP5 ISZERO PUSH2 0x109C JUMPI DUP3 DUP8 ADD MLOAD SWAP1 POP JUMPDEST PUSH2 0x10A6 DUP6 DUP3 PUSH2 0x1028 JUMP JUMPDEST DUP7 SSTORE POP PUSH2 0x110E JUMP JUMPDEST PUSH1 0x1F NOT DUP5 AND PUSH2 0x10BC DUP7 PUSH2 0xE98 JUMP JUMPDEST PUSH1 0x0 JUMPDEST DUP3 DUP2 LT ISZERO PUSH2 0x10E4 JUMPI DUP5 DUP10 ADD MLOAD DUP3 SSTORE PUSH1 0x1 DUP3 ADD SWAP2 POP PUSH1 0x20 DUP6 ADD SWAP5 POP PUSH1 0x20 DUP2 ADD SWAP1 POP PUSH2 0x10BF JUMP JUMPDEST DUP7 DUP4 LT ISZERO PUSH2 0x1101 JUMPI DUP5 DUP10 ADD MLOAD PUSH2 0x10FD PUSH1 0x1F DUP10 AND DUP3 PUSH2 0x100A JUMP JUMPDEST DUP4 SSTORE POP JUMPDEST PUSH1 0x1 PUSH1 0x2 DUP9 MUL ADD DUP9 SSTORE POP POP POP JUMPDEST POP POP POP POP POP POP JUMP INVALID LOG2 PUSH5 0x6970667358 0x22 SLT KECCAK256 0x27 0x2F 0xAB 0xC0 SHR 0xC7 0xFC 0xEE PUSH18 0x46FD9E71272C72EEFC1E6F2817F8DAAFE6E6 SWAP2 STATICCALL 0xE2 0x5D 0x4D PUSH5 0x736F6C6343 STOP ADDMOD GT STOP CALLER "},"gasEstimates":{"creation":{"codeDepositCost":"885600","executionCost":"infinite","totalCost":"infinite"},"external":{"approveRequest(uint256)":"infinite","approvers(address)":"2868","approversCount()":"2452","contribute()":"53263","createRequest(string,uint256,address)":"infinite","finalizeRequest(uint256)":"infinite","getManager()":"2566","getMinimunContribute()":"2504","getSummary()":"infinite","manager()":"2578","minimunContribute()":"2518","numRequest()":"2451","requests(uint256)":"infinite"}},"methodIdentifiers":{"approveRequest(uint256)":"d7d1bbdb","approvers(address)":"0a144391","approversCount()":"82fde093","contribute()":"d7bb99ba","createRequest(string,uint256,address)":"8a9cfd55","finalizeRequest(uint256)":"03441006","getManager()":"d5009584","getMinimunContribute()":"93bf5a76","getSummary()":"4051ddac","manager()":"481c6a75","minimunContribute()":"4e536177","numRequest()":"b1b16431","requests(uint256)":"81d12c58"}},"storageLayout":{"storage":[{"astId":60,"contract":"Crownfunding:Crownfunding","label":"manager","offset":0,"slot":"0","type":"t_address"},{"astId":62,"contract":"Crownfunding:Crownfunding","label":"minimunContribute","offset":0,"slot":"1","type":"t_uint256"},{"astId":64,"contract":"Crownfunding:Crownfunding","label":"approversCount","offset":0,"slot":"2","type":"t_uint256"},{"astId":68,"contract":"Crownfunding:Crownfunding","label":"approvers","offset":0,"slot":"3","type":"t_mapping(t_address,t_bool)"},{"astId":70,"contract":"Crownfunding:Crownfunding","label":"numRequest","offset":0,"slot":"4","type":"t_uint256"},{"astId":75,"contract":"Crownfunding:Crownfunding","label":"requests","offset":0,"slot":"5","type":"t_mapping(t_uint256,t_struct(Request)58_storage)"}],"types":{"t_address":{"encoding":"inplace","label":"address","numberOfBytes":"20"},"t_bool":{"encoding":"inplace","label":"bool","numberOfBytes":"1"},"t_mapping(t_address,t_bool)":{"encoding":"mapping","key":"t_address","label":"mapping(address => bool)","numberOfBytes":"32","value":"t_bool"},"t_mapping(t_uint256,t_struct(Request)58_storage)":{"encoding":"mapping","key":"t_uint256","label":"mapping(uint256 => struct Crownfunding.Request)","numberOfBytes":"32","value":"t_struct(Request)58_storage"},"t_string_storage":{"encoding":"bytes","label":"string","numberOfBytes":"32"},"t_struct(Request)58_storage":{"encoding":"inplace","label":"struct Crownfunding.Request","members":[{"astId":45,"contract":"Crownfunding:Crownfunding","label":"description","offset":0,"slot":"0","type":"t_string_storage"},{"astId":47,"contract":"Crownfunding:Crownfunding","label":"value","offset":0,"slot":"1","type":"t_uint256"},{"astId":49,"contract":"Crownfunding:Crownfunding","label":"recipient","offset":0,"slot":"2","type":"t_address"},{"astId":51,"contract":"Crownfunding:Crownfunding","label":"complete","offset":20,"slot":"2","type":"t_bool"},{"astId":53,"contract":"Crownfunding:Crownfunding","label":"approvalCount","offset":0,"slot":"3","type":"t_uint256"},{"astId":57,"contract":"Crownfunding:Crownfunding","label":"approvals","offset":0,"slot":"4","type":"t_mapping(t_address,t_bool)"}],"numberOfBytes":"160"},"t_uint256":{"encoding":"inplace","label":"uint256","numberOfBytes":"32"}}},"userdoc":{"kind":"user","methods":{},"version":1}}